:1006490074696D650068656C700070730050315F86
:100659003120646F776E210D0A0025732070656E55
:1006690064696E670D0A002573206F70656E0D0A47
:1006790000257320636C6F73650D0A000D0A0D0A5E
:1006890048656C6C6F2C207468697320697320430A
:100699006C65616E4F53403531205625730D0A0044
:1006A900302E33005368656C6C206C696B6520498A
:1006B9006E746572666163650054696D6572206365
:1006C9006F756E7465720050312E31206D6F6E69D1
:1006D900746F7200310032004E6F77207461736B52
:1006E9002073746172742072756E696E67202E2E84
:1006F9002E0D0A00436C65616E4F534035313E0043
:100709000D0A00556E6B6E6F7720636F6D6D616EAC
:10071900643A25730D0A004E6F7720636F756E7406
:1007290020697320256425640D0A0025730D0A00CC
:1007390052756E6E696E670050656E64696E67000A
:1007490050494409537461747573094E616D650D9F
:080759000A00FF0739FF074108
:100E7300428080000042809300004280890000424B
:100E8300808C000042808203E81208FF0649FF10AD
:100E930065FF064EFF0F76FF0653FF0FA2428087C2
:020EA30000004D
:0603F1007BFF7A0679FD96
:0603F7008B278A288929EA
:1003FD0090809AE4F0A37400F0A3742AF0AB27AABE
:10040D0028A929120104FF70030205246425601335
:10041D000529E5297002052814F9120104FF1210AF
:10042D004380DAAB270529E52970020528F9AA28AA
:10043D00120104249D606514604424F1601124FBB5
:10044D0070030204D4245360030204F902050990D9
:10045D00809AE0FBA3E475F003120207A9F0FA12EB
:10046D0002B1908095EBF0A3EAF0A3E9F0908095AE
:10047D00E0FBA3E0FAA3E0F912102002051690802C
:10048D009AE0FBA3E475F002120207A9F0FA12023A
:10049D001DFF908098E5F0F0A3EF801D90809AE00D
:1004AD00FBA3E475F001120207A9F0FA120104FE94
:1004BD003395E0908098F0A3CEF0908098E0FEA365
:1004CD00E0FF120EAE804290809AE0FBA3E475F03F
:1004DD0001120207A9F0FA120104FE3395E0908093
:1004ED0098F0A3CEF0E0FF1210D1801DAB27AA2803
:1004FD00A92990FFFF12011DFF121043AB27AA2857
:10050D00A929120104FF12104374012529F529E4CC
:0B051D003528F52802040A7E007F014B
:0105280022B0
:100F4800908085E0D394DF40F7E4F090808FE0FC58
:100F5800A3E0FDA3E0FEA3E02401FFE43EFEE43DA0
:0E0F6800FDE43CFC90808F1202A5B29280D274
:10117800D2912091FD7BFF7A0679561203F780F20F
:100C39007B017A80798E1210E9EF6036908093E01B
:100C4900FEA3E0248AF582E43EF583E0FBA3E0FA03
:100C5900A3E08B2A8A2BF52C7BFF7A067963120392
:100C6900F7908087E0FEA3E0AA06F97B01120BBB8F
:100C790080BE908093E0FEA3E0248AF582E43EF5ED
:100C890083E0FBA3E0FAA3E08B2A8A2BF52C7BFFF8
:070C99007A0679700203F7EF
:100DF900908093E0FEA3E0248AF582E43EF583E047
:100E0900FBA3E0FAA3E08B2A8A2BF52C7BFF7A0659
:100E1900797A1203F77B017A80798E1211A2908078
:0D0E290087E0FEA3E0AA06F97B01020D029E
:040DB9008E228F23D4
:100DBD0090808FE0FCA3E0FDA3E0FEA3E0F5278E7D
:100DCD00268D258C24E5232527FFE5223526FEE4F7
:100DDD003525FDE43524FC90808FE0F8A3E0F9A3E0
:0B0DED00E0FAA3E0FBC312029440DA1E
:010DF80022D8
:10110100120C397F0A7E00120DB9120DF97F037E90
:0611110000120DB980EA96
:10111700120C397F067E00120DB9120DF97F057E7C
:0611270000120DB980EA80
:060A7D008B228A2389246C
:100A83007F8F7E001207618B288A29892AAE02AFE5
:100A930001EF4E70057EFF7FFF22AB22AA23A9241C
:100AA300C003C002C001AB28AA29A92A900086125C
:100AB3000350AB28AA29A92A900085745D12017EF0
:100AC300AB22AA23A924C003C002C001AB28AA29D0
:100AD300A92A90001F120350AB28AA29A92A900023
:100AE30089E412017EAB25AA26A927C003C002C050
:100AF30001AB28AA29A92A90008A1203509080806A
:100B0300E0FFA3E0AB28AA29A92A90008DCF8FF09C
:0D0B1300120267AF01908080EAF0A3EFF0BE
:010B200022B2
:10052900C2AF758921758CE0E4F58AD2A990808BD8
:10053900F0438780759850758DFF858D8BD28ED24B
:1005490099120006752AFF752B06752CA97BFF7A6F
:100559000679851203F7908080E0FFA3E0908093ED
:10056900CFF0A3EFF075815D7525FF752606752718
:10057900AD7BFF7A057929120A7D908080E0FFA37F
:10058900E0908093CFF0A3EFF07525FF75260675EF
:1005990027C27BFF7A0F7948120A7D7525FF7526D8
:1005A900067527D07BFF7A117978120A7D7525FFA8
:1005B9007526067527DD7BFF7A117901120A7D758B
:1005C90025FF7526067527DF7BFF7A117917120A31
:1005D9007DD2AFD28C7BFF7A0679E11203F7E490E2
:1005E9008084F07B017A807900752680FD120F17CF
:1005F9001203F11211ADEF60FA120006859921E597
:1006090021640D6020908084E0C3947F50E5E0FF71
:1006190004F074002FF582E43480F583E521F0FFBE
:1006290012104380CE120CA07B017A8079007526C6
:1006390080E4FD120F171203F1E4908084F080B377
:100CA0007BFF7A0779091203F7908000E06052E435
:100CB000F522E52275F006A42408F8860308E6FA72
:100CC00008E68B268A27F5287B017A807900120DA9
:100CD00064EF7012E52275F006A4240BF808E6FA1A
:100CE00008E6F90203A90522E522C3940340C3756F
:100CF0002A01752B80752C007BFF7A07790C120373
:010D0000F7FB
:010D010022CF
:101065007BFF7A07792090808FE0FCA3E0FDA3E069
:0E107500FEA3E0F52D8E2C8D2B8C2A0203F7A6
:100F7600E4F521E52175F006A42408F8860308E6C1
:100F8600FA08E68B2A8A2BF52C7BFF7A077934122E
:0B0F960003F70521E521C3940340D8B8
:010FA100222D
:100FA20078217C007D007BFF7A07795B7E007F06DB
:100FB2001200DE7BFF7A0779491203F7E4FF908083
:0B0FC20086E0FEEFC39E50030F80F39B
:010FCD002201
:03000000020B21CF
:100B2100787FE4F6D8FD9080007F007E80E4F0A31A
:0A0B3100DFFCDEFA75814D020B7641
:03000B00020FCE13
:100FCE00758CE0C0E075E001120FDC120FEFC083EC
:100FDE00C08290808BF0908085E004F0D082D08328
:0A0FEE0022D0E0D0E0D0E002087647
:10087600C2AFC0E0C0F0C083C082C0D012094F85AD
:1008860000F0787FE6F0A3D8FBE5F0F07805A3D07A
:10089600E0F0D8FAD000D001A3E581F0A374FFF010
:1008A600A3E8F0A3E9F0908093E0FEA3E0248DF5A1
:1008B60082E43EF583E0FEA3E0FF908093EEF0A392
:1008C600EFF04E700F908080E0FFA3E0908093CF12
:1008D600F0A3EFF0908093E0FFF5F0A3E0FE24890B
:1008E600F582E435F0F583E070BC12095EE0F8129B
:1008F600095EE0F912095E12095EE0F581C000C0EA
:1009060001780512095EE0C0E0D8F812095EE0F54C
:10091600F08F838E82787FE0F6A3D8FB85F000D037
:10092600D0D082D083D0F0D0E0C0E0C082C0839027
:10093600808BE0D083D0827005D0E0D2AF2275E004
:1009460000120FDCD0E0D2AF32908093E0F5F0A336
:10095600E0F582E5F0F58322E58260031582221533
:0A0966008385FF82228582F025F0D0
:10097000F582E5833400F58322E582C39401F58294
:07098000E5839400F58322DA
:020009000520D0
:1011420090808FE0FCA3E0FDA3E0FEA3E0FF90808F
:04115200A50202A54B
:0D1188009080A8E0FF908092E0C39FFF22BE
:03000300C299227D
:03000600C298227B
:0311B700A29922D8
:0A11AD003098047F0180027F0022C9
:0311BA008F9922E8
:10104300AB071211421211B74009121188EFC39472
:101053001040F21211B75008120003AF030211BA85
:02106300C322A6
:080EE4008B3B8A3C893D8D3EE9
:100EEC00E4F53FAF3E153EEFD39400401BAB3B0502
:100EFC003DE53DAA3C7002053C14F9120104FF12B9
:0A0F0C0010435004053F80DBAF3FA7
:010F160022B8
:1010D1007B007A00793912109E7D02120EE4EFC373
:0710E10094025002C322D368
:0110E80022E5
:101020008B3B8A3C893DAB3BAA3CA93D120104FFA6
:1010300060101210437401253DF53DE4353CF53C4C
:0310400080E42227
:040EAE008E398F3AB0
:100EB20078A37C807D017BFF7A0079097E007F0226
:100EC2001200DE7540017541807542A37B017A8074
:100ED200799DAD3AAC391209877B017A80799D02FE
:020EE2001020DE
:060F17008B228A238924CD
:100F1D008B278A288929AF261526EFD394004014F4
:100F2D00AB270529E529AA287002052814F9ED1229
:0A0F3D00016C80E2AB22AA23A92474
:010F47002287
:100D64008B238A248925AB23AA24A925120104FEF6
:100D74006030AB26AA27A92812010460250528E5BE
:100D8400287002052714F9120104FFAB230525E599
:100D940025AA247002052414F91201046F60C77F88
:100DA4000122AB26AA27A928120104B506047F0054
:050DB40080027F012216
:1011560053070F74302FFFD39439400474072FFFC1
:011166002266
:10109E00AE07121156900001EF12017EEEC4540FEE
:0A10AE00FEFF121156EF12016C2232
:100FF800120104FFC39441400BEFD394465005EF10
:1010080024C9FF22EFC39430400BEFD39439500525
:07101800EF24D0FF227F004E
:01101F0022AE
:060987008B3B8A3C893D18
:10098D00D200AB40AA41A942120104F543900001E7
:10099D0012011DF5448C498D4A853B46853C4785A2
:1009AD003D48E543C394055039AD437F0A1210838A
:1009BD008E4B8F4CAC4BAD4CAE49AF4A1201B28F42
:1009CD00457E00AC4BAD4C1201A0C3E54A9FF54AE4
:1009DD00E5499EF549AE4BAF4C7C007D0A1201B244
:1009ED00800C754305E54314FD7F0A1210838E4B71
:1009FD008F4CAF431543EFD394004058AC4BAD4CE7
:100A0D00AE49AF4A1201B28F457E00AC4BAD4C12D0
:100A1D0001A0C3E54A9FF54AE5499EF549AE4BAFA6
:100A2D004C7C007D0A1201B28E4B8F4C74302545E3
:100A3D00F545B430083000058544458002C200AB51
:100A4D00460548E548AA477002054714F9E54512E1
:100A5D00016C809EAB46AA47A948E412016C300098
:0F0A6D000EAB46AA47A94890FFFF743012017ED6
:010A7C002257
:041083008F4DA905DF
:101087007F017E00AD0119EDD394004009AD4D7C81
:06109700001201A080EE32
:01109D002230
:1011670030AF047F0180027F009080AAEFF0C2AF0A
:011177002255
:0D1195009080AAE06003D38001C392AF22D6
:0B11A20012116774FF12014A02119540
:1010E900121167120104700A0412014A1211957F44
:0810F90000221211957F012273
:0610B8007B017A8079A99A
:1010BE008B318A328933AB31AA32A9331210E9EF60
:0310CE0070F42299
:0311BD000211A27A
:060BBB008B228A2389242D
:100BC1007F067E001207618B258A2689271210B8BD
:100BD100AB22AA23A9241202B1C003C002C001ABF7
:100BE10025AA26A927900003120350AB25AA26A9FE
:100BF10027C003C002C001AB22AA23A9241202D13B
:100C0100908093E0FEA3E0AA06F97B01C003C00235
:100C1100C001AB25AA26A9271202D1908093E0FE3C
:100C2100A3E02489F582E43EF5837401F0FB7A8028
:080C310079A91211BD02087639
:060D02008B228A238924E4
:100D08001210B8AB22AA23A9241202B1E94A4B60F7
:100D180042AB22AA23A9241202B11202B19000897F
:100D2800E412017EAB22AA23A9241202B18B258AE0
:100D3800268927900003120320C003C002C001AB1C
:100D480022AA23A9241202D1AB25AA26A927121167
:0C0D58002D80B07B017A8079A90211BDCA
:080EA5004180AC004180AB006C
:040761008E2B8F2C20
:10076500752FA07530007B017A8079AC1210E9EF06
:10077500700C853082852F837460F0A3E4F07402D9
:10078500252CF52CE4352BF52BC3E52C940CE52B0A
:1007950094005006752B00752C0C7B017A8079AB83
:1007A5001210BE853082852F83E0547FF52DA3E09E
:1007B500F52E853082852F83E030E7047F008002A7
:1007C5007F01EF604AE530252EFFE52F352DFAA98B
:1007D500077B014F602E12010430E7047F00800281
:1007E5007F01EF700F853082852F83E52DF0A3E51E
:1007F5002EF0801012021DAEF0252EF52EEE352DB1
:10080500F52D80C1D3E52E952CE52D952B5014E5BE
:100815002E2530F530E52D352FF52F45307084FB2D
:10082500FAF922C3E52E952CFFE52D952BFEC3EF96
:10083500940CEE94004023E530252CF582E52F3508
:100845002BF583EEF0A3EFF0E4252CFEE52B3480A9
:10085500853082852F83F0A3CEF07B017A8079AB3A
:100865001211BDE5302402FFE4352FFAA9077B01FB
:010875002260
:10112D0074FE29F974FF3AFA12021DFFE5F0547F9F
:05113D008FF0020248E2
:100E36007F007EA0E4F51AF51B8F828E83E0547F37
:100E4600FCA3E0FD8F828E83E030E7047B00800206
:100E56007B01EB600AED251BF51BEC351AF51AED47
:0C0E66002FFFEC3EFE4F70D1AE1AAF1B08
:010E7200225D
:100B3B00020529E493A3F8E493A34003F68001F2A2
:100B4B0008DFF48029E493A3F85407240CC8C333BB
:100B5B00C4540F4420C8834004F456800146F6DF8A
:100B6B00E4800B0102040810204080900E73E47E99
:100B7B00019360BCA3FF543F30E509541FFEE4937F
:100B8B00A360010ECF54C025E060A840B8E493A346
:100B9B00FAE493A3F8E493A3C8C582C8CAC583CA71
:100BAB00F0A3C8C582C8CAC583CADFE9DEE780BE29
:010EAD000044
:10000E00E709F608DFFA8046E709F208DFFA803ED4
:10001E0088828C83E709F0A3DFFA8032E309F608C1
:10002E00DFFA8078E309F208DFFA807088828C8329
:10003E00E309F0A3DFFA806489828A83E0A3F608DD
:10004E00DFFA805889828A83E0A3F208DFFA804CB7
:10005E0080D280FA80C680D4806980F2803380108E
:10006E0080A680EA809A80A880DA80E280CA8033F7
:10007E0089828A83ECFAE493A3C8C582C8CCC5836F
:10008E00CCF0A3C8C582C8CCC583CCDFE9DEE7803F
:10009E000D89828A83E493A3F608DFF9ECFAA9F0BE
:1000AE00EDFB2289828A83ECFAE0A3C8C582C8CC14
:1000BE00C583CCF0A3C8C582C8CCC583CCDFEADE2D
:1000CE00E880DB89828A83E493A3F208DFF980CC8F
:1000DE0088F0EF60010E4E60C388F0ED2402B40488
:1000EE000050B9F582EB2402B4040050AF2323452F
:0600FE00822390005E73F6
:10010400BB010689828A83E0225002E722BBFE02F9
:09011400E32289828A83E493222C
:10011D00BB010CE58229F582E5833AF583E0225097
:10012D0006E92582F8E622BBFE06E92582F8E222E1
:0D013D00E58229F582E5833AF583E49322FB
:10014A00BB010989828A83F8E028F022500327F745
:10015A0022BBFE05F8E328F3228A838982F8E49316
:02016A00282249
:10016C00BB010689828A83F0225002F722BBFE0172
:02017C00F3226C
:10017E00F8BB010DE58229F582E5833AF583E8F0B7
:10018E00225006E92582C8F622BBFE05E92582C863
:02019E00F2224B
:1001A000EF8DF0A4A8F0CF8CF0A428CE8DF0A42E73
:0201B000FE222D
:1001B200BC000BBE0029EF8DF084FFADF022E4CC31
:1001C200F875F008EF2FFFEE33FEEC33FCEE9DECFA
:1001D200984005FCEE9DFE0FD5F0E9E4CEFD22ED40
:1001E200F8F5F0EE8420D21CFEADF075F008EF2F8A
:1001F200FFED33FD4007985006D5F0F222C398FD7B
:050202000FD5F0EA2217
:10020700A3F8E0C5F025F0F0E582158270021583AA
:06021700E0C838F0E82207
:10021D00BB010A89828A83E0F5F0A3E022500687AC
:10022D00F009E71922BBFE07E3F5F009E31922896E
:0B023D00828A83E493F5F074019322A1
:10024800BB010A89828A83F0E5F0A3F0225006F701
:0F02580009A7F01922BBFE06F3E5F009F31922FE
:10026700F8BB0111E58229F582E5833AF583E8F0C9
:10027700E5F0A3F0225009E92582C8F608A6F02286
:0D028700BBFE09E92582C8F2E5F008F2226D
:10029400EB9FF5F0EA9E42F0E99D42F0E89C45F0C0
:0102A4002237
:0C02A500ECF0A3EDF0A3EEF0A3EFF022CC
:1002B100BB010789828A830203C15005E9F8020361
:1002C100AFBBFE05E9F80203D389828A830203E505
:1002D100BB011A89828A83D0F0D0E0F8D0E0F9D04E
:1002E100E0FAD0E0FBE8C0E0C0F00203CA5016E932
:1002F100F8D083D082D0E0F9D0E0FAD0E0FBC08220
:10030100C0830203B8BBFE16E9F8D083D082D0E0E7
:0F031100F9D0E0FAD0E0FBC082C0830203DC2207
:10032000BB010DE58229F582E5833AF5830203C11D
:100330005007E92582F80203AFBBFE07E92582F8E2
:100340000203D3E58229F582E5833AF5830203E5CA
:10035000BB0120E58229F582E5833AF583D0F0D010
:10036000E0F8D0E0F9D0E0FAD0E0FBE8C0E0C0F07F
:100370000203CA5018E92582F8D083D082D0E0F970
:10038000D0E0FAD0E0FBC082C0830203B8BBFE1805
:10039000E92582F8D083D082D0E0F9D0E0FAD0E02D
:0903A000FBC082C0830203DC22D1
:0603A9008A838982E473DF
:0903AF00E6FB08E6FA08E6F92273
:0903B800EBF608EAF608E9F6226A
:0903C100E0FBA3E0FAA3E0F9223D
:0903CA00EBF0A3EAF0A3E9F02234
:0903D300E2FB08E2FA08E2F9225B
:0903DC00EBF208EAF208E9F22252
:0C03E500E493FB740193FA740293F92274
:00000001FF
