:1002690074696D650068656C70007073006672650D
:1002790065006B696C6C0050315F3120646F776E7B
:10028900210D0A000D0A0D0A48656C6C6F2C20744B
:1002990068697320697320436C65616E4F534035FB
:1002A90031205625730D0A00302E33005368656CD2
:1002B9006C0054696D657220636F756E74657200A8
:1002C900503131206D6F6E69746F72004E6F7720F7
:1002D9007461736B2073746172742072756E696EC8
:1002E90067202E2E2E0D0A00436C65616E4F534018
:1002F90035313E000D0A00556E6B6E6F7720636FC6
:100309006D6D616E643A25730D0A005461736B203B
:100319002573206B696C6C6564210D0A0054617347
:100329006B202573206661696C656420746F206B8E
:10033900696C6C210D0A004E6F7720636F756E74BE
:100349002069732025640D0A0025730D0A002052C7
:100359000020500020202020504944095374617422
:100369007573094E616D650D0A00256309257309C9
:1003790025730D0A0046726565206D656D6F72798A
:100389002069732025642062797465732E0D0A0033
:10039900FF0269FF0F2CFF026EFF0CF6FF0273FFCD
:1003A9000B31FF0276FF0F54FF027BFF0DF103575C
:0203B900035AE5
:100F150082020000820D00008206000082080000A7
:0403BB008E2D8F2EC6
:1003BF0075400075410075422F852E82852D83E48F
:1003CF0093FF70030204B164256017052EE52EAE6E
:1003DF002D7002052D14F5828E83E493FF120E5CAF
:1003EF0080D7052EE52E7002052DF582852D83E42D
:1003FF0093249D604714602724F1600B24FB605BFE
:10040F002453707502049AAB40E542F92403F54278
:10041F00E541FA3400F54112021C120E398078AB17
:10042F0040E542F92402F542E541FA3400F5411264
:10043F0001E5F53F85F03EFFAE3E801AAB40054229
:10044F00E542AA417002054114F9120104FF3395E8
:10045F00E0F53E8F3FFE120D2D803CAB400542E58F
:10046F0042AA417002054114F9120104FF3395E0CD
:10047F00F53E8F3F120EFD801EE52E24FFF582E51F
:10048F002D34FFF583E493FF120E5C852E82852DAC
:10049F0083E493FF120E5C052EE52E7002052D02EC
:0604AF0003C87E007F017E
:0104B5002224
:100EE500780BE2FC08E2FDED2FFBEC3EFAC3780C33
:070EF500E29B18E29A40F0B5
:010EFC0022D3
:100EB3007805E2D394DF40F8E4F2780CE22401F2FF
:090EC30018E23400F2B29280E75B
:0E0F9700D2912091FD7E027F801203BB80F478
:0A0861008E228F238B248A2589261E
:10086B007F917E001205ACEF4E70057EFF7FFF225D
:10087B00EF2486F582E43EF583E522F0A3E523F031
:10088B00EF2485F582E43EF5837461F0EF245CF58B
:10089B0082E43EF583E4F0A3E522F0A3E523F0F92F
:1008AB00EF245AF582E43EF583E4F0A3E522F0A3AE
:1008BB00E9F0EF2488F582E43EF583E4F0EF248938
:1008CB00F582E43EF583E524F0A3E525F0A3E526C8
:1008DB00F0780FE2FD04F2EF248EF582E43EF5830F
:1008EB00EDF07802E2FC08E2FDEF248CF582E43EA9
:1008FB00F583ECF0A3EDF0EF248FF582E43EF58366
:10090B00E4F0A3F0ED4C601218E2FC08E2248FF542
:10091B0082E43CF583EEF0A3EFF07802EEF208EF01
:01092B00F2D9
:01092C0022A8
:02078D008F27B4
:10078F007802E2FE08E2020857E5294528700302C5
:10079F00085EE529248EF582E43528F583E0652788
:1007AF006003020848780EE2B5290818E2B528035D
:1007BF007F0022E529248FF582E43528F583E0FEBA
:1007CF00A3E0FF4E6020E529248CF582E43528F55F
:1007DF0083E0FCA3E0FDEF248CF582E43EF583EC8F
:1007EF00F0A3EDF08016E529248CF582E43528F589
:1007FF0083E0FFA3E07802CFF208EFF2E529248C23
:10080F00F582E43528F583E0FEA3E0FF4E601EE598
:10081F0029248FF582E43528F583E0FCA3E0FDEF72
:10082F00248FF582E43EF583ECF0A3EDF0AA28A91E
:10083F00297B01120E157F0122E529248CF582E414
:10084F003528F583E0FEA3E08E28F5290207987F6F
:01085F000098
:010860002275
:1006A100C2AF758921758CE0E4F58AD2A97810F280
:1006B100438780759850758DFF858D8BD28ED29929
:1006C100120FEB7E027F8D752FFF7530027531B1F0
:1006D1001203BBE4780FF275815D7F80FE1205ACD9
:1006E1007800EEF208EFF2E4780AF27E067FA17B51
:1006F100FF7A0279B51208617802E2FF08E2780D0B
:10070100CFF208EFF27E0E7FB37BFF7A0279BB1244
:1007110008617E0F7F977BFF7A0279C91208617E9B
:10072100027FD51203BBE47804F27E027FF112034B
:10073100BBD2AFD28C120FD6EF60FA120FEB8599B4
:1007410021E521640D60227804E2C3947F50E6E242
:10075100FF04F27800E2FC08E22FF582E43CF58325
:10076100E521F0FF120E5C80CC1209DE7800E2FE7A
:1007710008E2AA06F97B01752680E4FD120D967E3A
:0C078100027FF11203BBE47804F280A9AF
:1009DE007E027FFD1203BB7800E2FE08E28E23F555
:1009EE0024F5828E83E07003020A8AE4F522E52262
:1009FE0075F006A42499F582E43403F5837401930B
:100A0E00FA740293AE02FF8F828E83E493FD052467
:100A1E00E524AA237002052314F5828A83E0B50526
:100A2E00070FBF00010E80DFE52415247002152389
:100A3E00ED6009852482852383E07021E52275F01F
:100A4E0006A4249CF582E43403F583740193FA74AE
:100A5E000293F5828A83AF24AE230202400522E57B
:100A6E0022C3940540887E037F007800E2FC08E2F2
:0C0A7E00AA04752F018A30F5311203BB69
:010A8A002249
:100DF1008E258F26120C1512078DEF60067E037F5C
:100E01001480047E037F26752F01852530852631C8
:040E11001203BB22EB
:100F2C008E258F267E037F40780BE2F52F08E2F5A5
:040F3C00300203BBC1
:040CF6008E258F2692
:100CFA00E4F5277E037F52E52775F006A42499F5CB
:100D0A0082E43403F583E493FB740193FA74029347
:100D1A008B2F8A30F5311203BB0527E527C39405CB
:020D2A0040D1B6
:010D2C0022A4
:040B31008E258F2658
:100B350078297C007D007BFF7A0379B77E007F04EE
:100B45001200DE7E037F5D1203BB7802E2FE08E23F
:100B55008060E528452760607E037F73E528248E45
:100B6500F582E43527F583E0F52FE5282488F5821D
:100B7500E43527F583E025E02429F8E6FC08E6AA14
:100B8500047530FF8A31F532E5282489F582E4358C
:100B950027F583E0FBA3E0FAA3E08B338A34F53530
:100BA5001203BBE528248CF582E43527F583E0FEA6
:080BB500A3E08E27F528809AC9
:010BBD002215
:100F54008E258F26120CB98E2F8F307E037F7E0252
:020F640003BBCD
:03000000020A8B66
:100A8B00787FE4F6D8FD9090007F007E80E4F0A3A1
:100A9B00DFFCDEFA75A08078007F00E4F208DFFC53
:060AAB00758157020AEC00
:020FF7000520D3
:100F400090800BE0FCA3E0FDA3E0FEA3E0FF908017
:040F50001D0202106C
:0D0FA500908020E0FF90800EE0C39FFF22AF
:030FE800C2992289
:030FEB00C2982287
:030FEE00A29922A3
:0A0FD6003098047F0180027F0022A2
:030FF1008F9922B3
:100E5C00AB07120F40120FEE4009120FA5EFC3940F
:100E6C001040F2120FEE5008120FE8AF03020FF110
:020E7C00C3228F
:080D63008B458A4689478D4843
:100D6B00E4F549AF481548EFD39400401BAB45055C
:100D7B0047E547AA467002054614F9120104FF1213
:0A0D8B000E5C5004054980DBAF49FF
:010D9500223B
:100EFD007B007A007943120E997D02120D63EFC3C8
:070F0D0094025002C322D33D
:010F140022BA
:100E39008B458A468947AB45AA46A947120104FF53
:100E49006010120E5C74012547F547E43546F546F6
:030E590080E42210
:040D2D008E438F441E
:100D3100781B7C807D017BFF7A0F79F77E007F0233
:100D41001200DE754A01754B80754C1B7B017A8060
:100D51007915AD44AC431204B67B017A8079150252
:020D61000E3949
:060D96008B228A23892450
:100D9C008B278A288929AF261526EFD39400401477
:100DAC00AB270529E529AA287002052814F9ED12AC
:0A0DBC00014A80E2AB22AA23A92419
:010DC600220A
:100F660053070F74302FFFD39439400474072FFFB3
:010F76002258
:100E9900AE07120F66900001EF12015CEEC4540F09
:0A0EA900FEFF120F66EF12014A224D
:040DC7008F828E8306
:100DCB00E0FFC39441400BEFD394465005EF24C989
:100DDB00FF22EFC39430400BEFD394395005EF242F
:050DEB00D0FF227F0093
:010DF00022E0
:0604B6008B458A468947D0
:1004BC00D200AB4AAA4BA94C120104F54D90000195
:1004CC0012011DF54E8C538D548545508546518532
:1004DC004752E54DC394055039AD4D7F0A120E7E3F
:1004EC008E558F56AC55AD56AE53AF541201908FFE
:1004FC004F7E00AC55AD5612017EC3E5549FF554AA
:10050C00E5539EF553AE55AF567C007D0A12019013
:10051C00800C754D05E54D14FD7F0A120E7E8E552F
:10052C008F56AF4D154DEFD394004058AC55AD568A
:10053C00AE53AF541201908F4F7E00AC55AD561296
:10054C00017EC3E5549FF554E5539EF553AE55AF6C
:10055C00567C007D0A1201908E558F567430254FB3
:10056C00F54FB43008300005854E4F8002C200AB09
:10057C00500552E552AA517002055114F9E54F127B
:10058C00014A809EAB50AA51A952E412014A300094
:0F059C000EAB50AA51A95290FFFF743012015CB0
:0105AB00222D
:040C1500AD07AC0675
:100C1900E4FB79278D828C83E0FFB420070DBD00AA
:100C2900010C80F0EF7003AF0322E4FA8D828C830C
:100C3900E060170DEDAE0470010C14FF120DC7AE84
:100C49000109A806A6070ABA03E2EAD39400400FED
:100C5900EB75F00AA4FB19A801E62BFB1A80EBAF90
:010C69000387
:010C6A002267
:040E7E008F57A905DC
:100E82007F017E00AD0119EDD394004009AD577C7E
:060E92000012017E80EE5B
:010E98002237
:100F770030AF047F0180027F007812EFF2C2AF2208
:0C0FBF007812E26003D38001C392AF22DD
:0800030078107401F2D28D2285
:0D0FB200AE07120F77A806E214F2020FBF7F
:100ECC00AE07120F77A806E27009E204F2120FBF08
:090EDC007F0022120FBF7F0122EA
:0B0FCB00AD07AF05120ECCEF70F8224E
:100F8700AD07780A7401F2AF05120ECCEF70F822A4
:030FF400020FB237
:080FE000120FB2E4780AF222BC
:020C6B008F14E4
:100C6D007F047E001205ACAB07AA067F11120F8719
:100C7D00A814E2FF08E28B828A83A3A3CFF0A3EF2F
:100C8D00F0A814EAF208EBF2780DE2FE08E2FF8B11
:100C9D00828A83EEF0A3EFF0EF2488F582E43EF52F
:0C0CAD00837401F07F11120FE0020003BD
:020BBE008F1096
:100BC0007F11120F87A81008E2700218E26041A896
:100BD00010E2FE08E2FFF5828E83E0FCA3E02488A9
:100BE000F582E43CF583E4F0AA06A9077B018B11AA
:100BF0008A128913A810E2FE08E2F5828E83A3A36D
:100C0000E0FFA3E0A810CFF208EFF2120E1580B5B6
:050C10007F11020FE05E
:060F25008114008113009D
:0405AC008E278F28DF
:1005B0007529A0752A007F14120ECCEF700C852AC5
:1005C000828529837460F0A3E4F074022528F5285D
:1005D000E43527F527C3E528940CE5279400500659
:1005E00075270075280C7F13120FCB852A82852969
:1005F00083E0547FFEA3E0FF852A82852983E030D3
:10060000E7047D0080027D01ED6041E52A2FFDE5D4
:10061000293EFC4D602D8D828C83E030E7047B0009
:1006200080027B01EB700D852A82852983EEF0A381
:10063000EFF0800F8D828C83E0FAA3E02FFFEA3E7B
:10064000FE80C8D3EF9528EE95275011EF252AF5A7
:100650002AEE3529F529452A7091FEFF22C3EF9530
:1006600028FFEE9527FEC3EF940CEE94004023E59F
:100670002A2528F582E5293527F583EEF0A3EFF04A
:10068000E42528FEE5273480852A82852983F0A386
:10069000CEF07F13120FF4E52A2402FFE43529FE81
:0106A0002237
:100E15008F828E8374FE2582F58274FF3583F58378
:100E2500C083C082E0547FFFA3E0D082D083CFF09F
:040E3500A3EFF02215
:100CB9007F007EA0E4F527F5288F828E83E0547F9C
:100CC900FCA3E0FD8F828E83E030E7047B00800285
:100CD9007B01EB600AED2528F528EC3527F527ED92
:0C0CE9002FFFEC3EFE4F70D1AE27AF286D
:010CF50022DC
:03000B0002092DBA
:10092D00C0E0C083C082C0D075D0087810E26004EA
:10093D00E4F280087805E204F2758CE01209C8AE85
:10094D0082AF8379007A80E7F0A309DAFA8E828F7D
:10095D008374851209D2E581F01209C8748C1209CD
:10096D00D2780DE0FDF2A308E0F24D700D7802E2B1
:10097D00FF08E2780DCFF208EFF21209C8AE82AF90
:10098D008374881209D2E070D08E828F83748512A1
:10099D0009D2E0F5818E828F8379007A08E0F7A382
:1009AD0009DAFA74081209D279107A70E0F7A309FE
:1009BD00DAFAD0D0D082D083D0E032780DE2F58350
:1009CD0008E2F58222AA822AF582E5833400F583B6
:0109DD0022F7
:100AB1000206A1E493A3F8E493A34003F68001F2B4
:100AC10008DFF48029E493A3F85407240CC8C33346
:100AD100C4540F4420C8834004F456800146F6DF15
:100AE100E4800B0102040810204080900F15E47E81
:100AF100019360BCA3FF543F30E509541FFEE4930A
:100B0100A360010ECF54C025E060A840B8E493A3D0
:100B1100FAE493A3F8E493A3C8C582C8CAC583CAFB
:100B2100F0A3C8C582C8CAC583CADFE9DEE780BEB3
:010F2B0000C5
:10000E00E709F608DFFA8046E709F208DFFA803ED4
:10001E0088828C83E709F0A3DFFA8032E309F608C1
:10002E00DFFA8078E309F208DFFA807088828C8329
:10003E00E309F0A3DFFA806489828A83E0A3F608DD
:10004E00DFFA805889828A83E0A3F208DFFA804CB7
:10005E0080D280FA80C680D4806980F2803380108E
:10006E0080A680EA809A80A880DA80E280CA8033F7
:10007E0089828A83ECFAE493A3C8C582C8CCC5836F
:10008E00CCF0A3C8C582C8CCC583CCDFE9DEE7803F
:10009E000D89828A83E493A3F608DFF9ECFAA9F0BE
:1000AE00EDFB2289828A83ECFAE0A3C8C582C8CC14
:1000BE00C583CCF0A3C8C582C8CCC583CCDFEADE2D
:1000CE00E880DB89828A83E493A3F208DFF980CC8F
:1000DE0088F0EF60010E4E60C388F0ED2402B40488
:1000EE000050B9F582EB2402B4040050AF2323452F
:0600FE00822390005E73F6
:10010400BB010689828A83E0225002E722BBFE02F9
:09011400E32289828A83E493222C
:10011D00BB010CE58229F582E5833AF583E0225097
:10012D0006E92582F8E622BBFE06E92582F8E222E1
:0D013D00E58229F582E5833AF583E49322FB
:10014A00BB010689828A83F0225002F722BBFE0194
:02015A00F3228E
:10015C00F8BB010DE58229F582E5833AF583E8F0D9
:10016C00225006E92582C8F622BBFE05E92582C885
:02017C00F2226D
:10017E00EF8DF0A4A8F0CF8CF0A428CE8DF0A42E95
:02018E00FE224F
:10019000BC000BBE0029EF8DF084FFADF022E4CC53
:1001A000F875F008EF2FFFEE33FEEC33FCEE9DEC1C
:1001B000984005FCEE9DFE0FD5F0E9E4CEFD22ED62
:1001C000F8F5F0EE8420D21CFEADF075F008EF2FAC
:1001D000FFED33FD4007985006D5F0F222C398FD9D
:0501E0000FD5F0EA223A
:1001E500BB010A89828A83E0F5F0A3E022500687E5
:1001F500F009E71922BBFE07E3F5F009E3192289A7
:0B020500828A83E493F5F074019322D9
:0C021000ECF0A3EDF0A3EEF0A3EFF02261
:10021C00BB010789828A8302024B5005E9F802026E
:10022C0042BBFE05E9F802025489828A8302025D10
:06023C008A838982E4734D
:09024200E6FB08E6FA08E6F922E1
:09024B00E0FBA3E0FAA3E0F922B4
:09025400E2FB08E2FA08E2F922DB
:0C025D00E493FB740193FA740293F922FD
:00000001FF
