:0F0281004280030000428005000042800003E835
:07000300E4FF0FEFB4FFFB67
:01000A0022D3
:0801C100908230EEF0A3EFF094
:1001C900D3908001E09FEE6480F8908000E0648025
:1001D900984027120003E0FEA3E0FDAC06120003DD
:1001E900908230E0FEA3E0FFC3ED9FFDEC9EAF05DA
:0C01F900908000F0A3EFF07F01227F0057
:0102050022D6
:10025E007B207A03C291E4908003F0A3F0AF03AE4B
:10026E00021201C1EF60F6D291908003E4F0A30474
:03027E00F080EA23
:100239007B847A03C291E4908005F0A3F0AF03AE0A
:10024900021201C1EF600AD291908005E4F0A30483
:05025900F0B29280E804
:10015500908230EBF0A3EAF0A3E9F0908230E0FB67
:10016500A3E0FAA3E0F9908002E0FF75F08AA424E9
:100175008DF582E5F03480F583EBF0A3EAF0A3E991
:10018500F075F08AEFA4248CF582E5F03480F583D0
:100195007430F0908230E0FBA3E0FAA3E0F975F04B
:1001A5008AEFA42453F582E5F03480F583EBF0A3C0
:0C01B500EAF0A3E9F0908002E004F022E0
:10020600C2AF758922758CD0758AFED2A9908002FC
:100216007401F0E490822FF07BFF7A02795E12017E
:10022600557BFF7A027939120155D2AFD28C120072
:030236000380FB47
:030000000200C932
:0C00C900787FE4F6D8FD75810702011075
:03000B0002000EE2
:10000E00C0E0C0F0C083C082C0D01200A88500F04E
:10001E00787FE6F0A3D8FBE5F0F07805A3D0E0F00A
:10002E00D8FAD000D001A3E581F0A3A3E8F0A3E9AC
:10003E00F090822FE004F0908002E0FF90822FE09B
:10004E00B50702E4F01200A8AE82AF83E5822488E1
:10005E00F582E5833400F583E0F81200BBE0F91277
:10006E0000BB1200BBE0F581C000C0017805120094
:10007E00BBE0C0E0D8F81200BBE0F5F08F838E82B3
:10008E00787FE0F6A3D8FB85F000D0D0D082D08365
:10009E00D0F0D0E0C28D858C8A3290822FE075F040
:1000AE008AA42407F582E5F03480F58322E582C325
:0B00BE009401F582E5839400F5832295
:1000D500020206E493A3F8E493A34003F68001F239
:1000E50008DFF48029E493A3F85407240CC8C3332C
:1000F500C4540F4420C8834004F456800146F6DFFB
:10010500E4800B0102040810204080900281E47E07
:10011500019360BCA3FF543F30E509541FFEE493EF
:10012500A360010ECF54C025E060A840B8E493A3B6
:10013500FAE493A3F8E493A3C8C582C8CAC583CAE1
:10014500F0A3C8C582C8CAC583CADFE9DEE780BE99
:01029000006D
:00000001FF
