:1003EC0074696D650068656C700070730050315FE6
:1003FC003120646F776E210D0A0025632070656EC5
:10040C0064696E670D0A002563206F70656E0D0AB6
:10041C0000256320636C6F73650D0A000D0A0D0ACD
:10042C0048656C6C6F2C2074686973206973204369
:10043C006C65616E4F53403531205625730D0A00A3
:10044C00302E33005368656C6C206C696B652049E9
:10045C006E746572666163650054696D65722063C4
:10046C006F756E7465720050312E31206D6F6E6930
:10047C00746F7200310032004E6F77207461736BB1
:10048C002073746172742072756E696E67202E2EE3
:10049C002E0D0A00436C65616E4F534035313E00A2
:1004AC000D0A00556E6B6E6F7720636F6D6D616E0C
:1004BC00643A25730D0A004E6F7720636F756E7466
:1004CC0020697320256425640D0A0025730D0A002C
:1004DC0052756E6E696E670050656E64696E67006A
:1004EC0050494409537461747573094E616D650DFF
:1004FC000A0025630925730925730D0A00FF04DC26
:03050C00FF04E405
:100DA70042808A000042808D000042808003E81262
:100DB70008FF03ECFF0E5BFF03F1FF0D51FF03F686
:030DC700FF099889
:0802B2007BFF908355E0F52B62
:0602BA008B288A29892A25
:1002C00090835BE4F0A37400F0A3742BF0AB28AA36
:1002D00029A92A120104FF70030203E764256013B1
:1002E000052AE52A7002052914F9120104FF120EED
:1002F0001A80DAAB28052AE52A70020529F9AA290D
:10030000120104249D606514604424F1601124FBF3
:100310007003020397245360030203BC0203CC90D2
:10032000835BE0FBA3E475F003120207A9F0FA1265
:100330000265908356EBF0A3EAF0A3E9F0908356B0
:10034000E0FBA3E0FAA3E0F9120DF70203D99083D2
:100350005BE0FBA3E475F002120207A9F0FA1202B7
:100360001DFF908359E5F0F0A3EF801D90835BE0C3
:10037000FBA3E475F001120207A9F0FA120104FED2
:100380003395E0908359F0A3CEF0908359E0FEA31B
:10039000E0FF120C5C804290835BE0FBA3E475F00D
:1003A00001120207A9F0FA120104FE3395E09083CE
:1003B00059F0A3CEF0E0FF120EE0801DAB28AA2971
:1003C000A92A90FFFF12011DFF120E1AAB28AA29BD
:1003D000A92A120104FF120E1A7401252AF52AE433
:0B03E0003529F5290202CD7E007F01C7
:0103EB0022EF
:100CF600908083E0D394DF40F7E4F0908090E0FCAE
:100D0600A3E0FDA3E0FEA3E02401FFE43EFEE43DF4
:0E0D1600FDE43CFC908090120259B29280D213
:100F7200D2912091FD7BFF7A0379F91202BA80F2B5
:100D24007B017A80798F120EF8EF60127A047906CB
:100D34001202B27B017A807985120B4880E27BFF34
:0D0D44007A047913908355E0F52B0202BA72
:100EAE007A04791D1202B27B017A80798F120F9C1F
:090EBE007B017A807985020BDAD0
:040C1C008E228F2372
:100C2000908090E0FCA3E0FDA3E0FEA3E0F5278E1A
:100C3000268D258C24E5232527FFE5223526FEE495
:100C40003525FDE43524FC908090E0F8A3E0F9A37D
:0B0C5000E0FAA3E0FBC312024840DA08
:010C5B002276
:100F1000120D247F0A7E00120C1C120EAE7F037E7F
:060F200000120C1C80EA27
:100F2600120D247F067E00120C1C120EAE7F057E6B
:060F360000120C1C80EA11
:100A15008B228A238924908084E0FF75F08DA4249D
:100A25001AF582E5F03481F583EBF0A3EAF0A3E94A
:100A3500F075F08DEFA42419F582E5F03481F58386
:100A45007450F075F08DEFA424C0F582E5F0348084
:100A5500F583EBF0A3EAF0A3E9F075F08DEFA4249C
:100A65001DF582E5F03481F583E4F075F08DEFA492
:100A7500241EF582E5F03481F583E525F0A3E5260E
:0C0A8500F0A3E527F0908084E004F0224C
:10050F00C2AF758921758CE0E4F58AD2A990808CF1
:10051F00F0438780759850758DFF858D8BD28ED265
:10052F0099120006752BFF752C04752D4C7BFF7AE5
:10053F000479281202BA7581509080847401F0E416
:10054F00908355F090811E74FFF0A37404F0A37490
:10055F0050F07525FF7526047527657BFF7A0C799A
:10056F00F6120A158B257526047527737A0F797283
:10057F00120A158B257526047527807A0F791012AC
:10058F000A158B257526047527827A0F7926120A8C
:10059F0015D2AFD28C7A0479841202BAE490808299
:1005AF00F07B017A807900752680FD120CC57BFFE8
:1005BF007A0479A01202BA120FA7EF60FA1200069E
:1005CF00859921E521640D6020908082E0C3947F9E
:1005DF0050E5E0FF04F074002FF582E43480F583DA
:1005EF00E521F0FF120E1A80CE120A917B017A805C
:1005FF007900752680E4FD120CC57BFF7A0479A083
:0A060F001202BAE4908082F080AD80
:100A91007BFF7A0479AC1202BA908000E06052E4E4
:100AA100F522E52275F006A42408F8860308E6FA83
:100AB10008E68B268A27F5287B017A807900120ABD
:100AC100F3EF7012E52275F006A4240BF808E6FA9C
:100AD10008E6F90202850522E522C3940340C375A5
:100AE1002B01752C80752D007BFF7A0479AF1202E2
:010AF100BA4A
:010AF20022E1
:100E5B007BFF7A0479C3908090E0FCA3E0FDA3E0D4
:0E0E6B00FEA3E0F52E8E2D8D2C8C2B0202BAEC
:100D5100E4F521E52175F006A42408F8860308E6E8
:100D6100FA08E68B2B8A2CF52D7BFF7A0479D712B2
:0B0D710002BA0521E521C3940340D81D
:010D7C002254
:1009980078227C007D007BFF7A0579097E007F063E
:1009A8001200DE7BFF7A0479EC1202BAE4F521909A
:1009B8008084E0FFE521C39F505285212B75F08D7F
:1009C800E521A4241DF582E5F03481F583E075F076
:1009D80003A42422F8860308E6FA08E68B2C8A2D5D
:1009E800F52E75F08DE521A4241EF582E5F03481FD
:1009F800F583E0FBA3E0FAA3E08B2F8A30F5317B87
:0C0A0800FF7A0479FE1202BA052180A3D7
:010A140022BF
:030000000208FEF5
:1008FE00787FE4F6D8FD9080007F007E80E4F0A340
:0A090E00DFFCDEFA75815B0209537D
:03000B00020D7D66
:100D7D00758CE0C0E075E001120D8B120D9EC083E5
:100D8D00C08290808CF0908083E004F0D082D0837C
:0A0D9D0022D0E0D0E0D0E002080A06
:10080A00C2AFC0E0C0F0C083C082C0D01208C285A7
:10081A0000F0787FE6F0A3D8FBE5F0F07805A3D0E6
:10082A00E0F0D8FAD000D001A3E581F0A374FFF07C
:10083A00A3E8F0A3E9F0908355E004F0908084E007
:10084A00FF908355E0B50702E4F01208C2AE82AF0A
:10085A008374891208E2E070DD1208D5E0F8120804
:10086A00D5E0F91208D51208D5E0F581C000C0011B
:10087A0078051208D5E0C0E0D8F81208D5E0F5F0FE
:10088A008F838E82787FE0F6A3D8FB85F000D0D0E4
:10089A00D082D083D0F0D0E0C0E0C082C083908004
:1008AA008CE0D083D0827005D0E0D2AF2275E00010
:1008BA00120D8BD0E0D2AF32908355E075F08DA443
:1008CA002494F582E5F03480F58322E582600315ED
:1008DA008222158385FF82228582F025F0F582E542
:1008EA00833400F58322E582C39401F582E583947B
:0408FA0000F5832260
:020009000520D0
:100F3C00908090E0FCA3E0FDA3E0FEA3E0FF908393
:040F4C0066020259DE
:0D0F8200908369E0FF908093E0C39FFF2201
:03000300C299227D
:03000600C298227B
:030FB100A29922E0
:0A0FA7003098047F0180027F0022D1
:030FB4008F9922F0
:030FB700AF9922CD
:100E1A00AB07120F3C120FB14009120F82EFC394B5
:100E2A001040F2120FB15008120003AF03020FB4C0
:020E3A00C322D1
:080C92008B3C8A3D893E8D3F39
:100C9A00E4F540AF3F153FEFD39400401BAB3C0552
:100CAA003EE53EAA3D7002053D14F9120104FF1209
:0A0CBA000E1A5004054080DBAF4025
:010CC400220D
:100EE0007B007A00793A120E947D02120C92EFC3C5
:070EF00094025002C322D35B
:010EF70022D8
:100DF7008B3C8A3D893EAB3CAA3DA93E120104FFCC
:100E07006010120E1A7401253EF53EE4353DF53D9E
:030E170080E42252
:040C5C008E3A8F3B02
:100C600078647C837D017BFF7A0079097E007F02B6
:100C70001200DE7541017542837543647B017A83FE
:100C8000795EAD3BAC3A1207147B017A83795E0240
:020C90000DF75E
:060E3C008B598A5A895B04
:100E4200E4FFAB59055BE55BAA5A7002055A14F937
:080E520012010460030F80EAA5
:010E5A002275
:060B97008B4F8A508951CA
:100B9D008B568A578958AF551555EFD3940040267B
:100BAD00AB520554E554AA537002055314F91201C2
:100BBD0004FFAB4F0551E551AA507002055014F9D1
:0C0BCD00EF12016C80D0AB56AA57A9585B
:010BD90022F9
:060CC5008B228A23892422
:100CCB008B278A288929AF261526EFD39400401449
:100CDB00AB270529E529AA287002052814F9ED127E
:0A0CEB00016C80E2AB22AA23A924C9
:010CF50022DC
:100AF3008B238A248925AB23AA24A925120104FE6A
:100B03006030AB26AA27A92812010460250528E531
:100B1300287002052714F9120104FFAB230525E50C
:100B230025AA247002052414F91201046F60C77FFB
:100B33000122AB26AA27A928120104B506047F00C7
:050B430080027F012289
:100F500053070F74302FFFD39439400474072FFFC9
:010F6000226E
:100E9400AE07120F50900001EF12017EEEC4540F02
:0A0EA400FEFF120F50EF12016C2246
:100DCF00120104FFC39441400BEFD394465005EF3B
:100DDF0024C9FF22EFC39430400BEFD39439500551
:070DEF00EF24D0FF227F007A
:010DF60022DA
:060714008B3C8A3D893E8A
:10071A00D200AB41AA42A943120104F54490000158
:10072A0012011DF5458C4A8D4B853C47853D488510
:10073A003E49E544C394055039AD447F0A120E7907
:10074A008E4C8F4DAC4CAD4DAE4AAF4B1201B28FB1
:10075A00467E00AC4CAD4D1201A0C3E54B9FF54B54
:10076A00E54A9EF54AAE4CAF4D7C007D0A1201B2B5
:10077A00800C754405E54414FD7F0A120E798E4CEF
:10078A008F4DAF441544EFD394004058AC4CAD4D57
:10079A00AE4AAF4B1201B28F467E00AC4CAD4D1241
:1007AA0001A0C3E54B9FF54BE54A9EF54AAE4CAF17
:1007BA004D7C007D0A1201B28E4C8F4D7430254655
:1007CA00F546B430083000058545468002C200ABC4
:1007DA00470549E549AA487002054814F9E5461251
:1007EA00016C809EAB47AA48A949E412016C30000B
:0F07FA000EAB47AA48A94990FFFF743012017E49
:0108090022CC
:040E79008F4EA905EA
:100E7D007F017E00AD0119EDD394004009AD4E7C8C
:060E8D00001201A080EE3E
:010E9300223C
:100F610030AF047F0180027F0090836BEFF0C2AF4E
:010F7100225D
:0D0F8F0090836BE06003D38001C392AF221A
:0B0F9C00120F6174FF12014A020F8F58
:100EF800120F61120104700A0412014A120F8F7F47
:080F08000022120F8F7F01226D
:060EC7007B017A83796AC9
:100ECD008B258A268927AB25AA26A927120EF8EF8E
:030EDD0070F4228C
:030FBA00020F9C87
:060B48008B228A238924A0
:100B4E00E4FE120EC7AB22AA23A9248E827583005F
:100B5E0012011D60030E80ED908355E0FF04AB2261
:100B6E00AA23A9248E8275830012017E75F08DEF63
:100B7E00A4241DF582E5F03481F5837401F0FB7A2F
:090B8E0083796A120FBA02080A09
:060BDA008B228A2389240E
:100BE000E4FF120EC7E4FFAB22AA23A9248F82756B
:100BF000830012011DFE601775F08DA42490F5820C
:100C0000E5F03480F583E4F08F82F58312017E0FE6
:0C0C1000BF04D47B017A83796A020FBA1A
:040DCA0041836C00F5
:040619008E1A8F1B8B
:10061D00751DA0751E007B017A83796C120EF8EFA3
:10062D00700C851E82851D837460F0A3E4F0740246
:10063D00251BF51BE4351AF51AC3E51B940CE51AB9
:10064D0094005006751A00751B0C851E82851D833E
:10065D00E0547FFEA3E0FF851E82851D83E030E41C
:10066D00047D0080027D018D1CE51C6010E51B24BE
:10067D0002FDE4351AFCC3EF9DEE9C5033EF251EB1
:10068D00F51EEE351DF51D451E7004FBFAF922858C
:10069D001E82851D83E0547FFEA3E0FF851E8285AB
:1006AD001D83E030E4047D0080027D018D1C80B946
:1006BD00C3EF951BFFEE951AFEC3EF940CEE94005D
:1006CD00401EE51E251BF582E51D351AF583EEF05E
:1006DD00A3EFF0851E82851D83E51AF0A3E51BF0BF
:1006ED00851E82851D83C083C082E04410FFA3E078
:1006FD00D082D083CFF0A3EFF0E51E2402FFE435C6
:06070D001DFAA9077B01A3
:0107130022C3
:1009180002050FE493A3F8E493A34003F68001F2E1
:1009280008DFF48029E493A3F85407240CC8C333E0
:10093800C4540F4420C8834004F456800146F6DFAF
:10094800E4800B0102040810204080900DA7E47E8B
:10095800019360BCA3FF543F30E509541FFEE493A4
:10096800A360010ECF54C025E060A840B8E493A36B
:10097800FAE493A3F8E493A3C8C582C8CAC583CA96
:10098800F0A3C8C582C8CAC583CADFE9DEE780BE4E
:010DCE000024
:10000E00E709F608DFFA8046E709F208DFFA803ED4
:10001E0088828C83E709F0A3DFFA8032E309F608C1
:10002E00DFFA8078E309F208DFFA807088828C8329
:10003E00E309F0A3DFFA806489828A83E0A3F608DD
:10004E00DFFA805889828A83E0A3F208DFFA804CB7
:10005E0080D280FA80C680D4806980F2803380108E
:10006E0080A680EA809A80A880DA80E280CA8033F7
:10007E0089828A83ECFAE493A3C8C582C8CCC5836F
:10008E00CCF0A3C8C582C8CCC583CCDFE9DEE7803F
:10009E000D89828A83E493A3F608DFF9ECFAA9F0BE
:1000AE00EDFB2289828A83ECFAE0A3C8C582C8CC14
:1000BE00C583CCF0A3C8C582C8CCC583CCDFEADE2D
:1000CE00E880DB89828A83E493A3F208DFF980CC8F
:1000DE0088F0EF60010E4E60C388F0ED2402B40488
:1000EE000050B9F582EB2402B4040050AF2323452F
:0600FE00822390005E73F6
:10010400BB010689828A83E0225002E722BBFE02F9
:09011400E32289828A83E493222C
:10011D00BB010CE58229F582E5833AF583E0225097
:10012D0006E92582F8E622BBFE06E92582F8E222E1
:0D013D00E58229F582E5833AF583E49322FB
:10014A00BB010989828A83F8E028F022500327F745
:10015A0022BBFE05F8E328F3228A838982F8E49316
:02016A00282249
:10016C00BB010689828A83F0225002F722BBFE0172
:02017C00F3226C
:10017E00F8BB010DE58229F582E5833AF583E8F0B7
:10018E00225006E92582C8F622BBFE05E92582C863
:02019E00F2224B
:1001A000EF8DF0A4A8F0CF8CF0A428CE8DF0A42E73
:0201B000FE222D
:1001B200BC000BBE0029EF8DF084FFADF022E4CC31
:1001C200F875F008EF2FFFEE33FEEC33FCEE9DECFA
:1001D200984005FCEE9DFE0FD5F0E9E4CEFD22ED40
:1001E200F8F5F0EE8420D21CFEADF075F008EF2F8A
:1001F200FFED33FD4007985006D5F0F222C398FD7B
:050202000FD5F0EA2217
:10020700A3F8E0C5F025F0F0E582158270021583AA
:06021700E0C838F0E82207
:10021D00BB010A89828A83E0F5F0A3E022500687AC
:10022D00F009E71922BBFE07E3F5F009E31922896E
:0B023D00828A83E493F5F074019322A1
:10024800EB9FF5F0EA9E42F0E99D42F0E89C45F00C
:010258002283
:0C025900ECF0A3EDF0A3EEF0A3EFF02218
:10026500BB010789828A830202945005E9F80202DC
:100275008BBBFE05E9F802029D89828A830202A6EC
:060285008A838982E47304
:09028B00E6FB08E6FA08E6F92298
:09029400E0FBA3E0FAA3E0F9226B
:09029D00E2FB08E2FA08E2F92292
:0C02A600E493FB740193FA740293F922B4
:00000001FF
