:1006E70050315F3120646F776E210D0A0048656CC9
:1006F7006C6F2C207468697320697320436C656183
:100707006E4F53403531205625730D0A00302E3376
:10071700004E6F77207461736B207374617274205D
:0D07270072756E696E67202E2E2E0D0A0071
:0F09BA004280040000428007000042800003E8F2
:06029B008B218A22892359
:1002A10090823BE4F0A37400F0A37424F0AB21AA84
:1002B10022A923120104FF7003020398642560132D
:1002C1000523E5237002052214F9120104FF120926
:1002D1002C80DAAB210523E52370020522F9AA223D
:1002E100120104249D605A14603924F16007244EE0
:1002F100707A02037D90823BE0FBA3E475F0031268
:100301000207A9F0FA120254908236EBF0A3EAF048
:10031100A3E9F0908236E0FBA3E0FAA3E0F9120929
:1003210009806690823BE0FBA3E475F002120207AC
:10033100A9F0FA12021DFF908239E5F0F0A3EF80D7
:100341001D90823BE0FBA3E475F001120207A9F0C6
:10035100FA120104FE3395E0908239F0A3CEF090B9
:100361008239E0FEA3E0FF1207BB801DAB21AA2268
:10037100A92390FFFF12011DFF12092CAB21AA2214
:10038100A923120104FF12092C74012523F523E48A
:0B0391003522F5220202AE7E007F0143
:01039C00223E
:06000300E4FF0FBFFFFC4B
:0100090022D4
:10088900908002E0D394DF40F7E4F0908009E0FC27
:10089900A3E0FDA3E0FEA3E02401FFE43EFEE43D66
:0E08A900FDE43CFC908009120248B29280D21D
:100A1A00D2912091FD7BFF7A0679E712029B80F240
:01000A0022D3
:100685008B218A228923908003E0FF75F08AA424B8
:1006950093F582E5F03480F583EBF0A3EAF0A3E966
:1006A500F075F08AEFA42492F582E5F03480F583A5
:1006B5007450F075F08AEFA42439F582E5F03480A2
:1006C500F583EBF0A3EAF0A3E9F075F08AEFA42433
:1006D50096F582E5F03480F583E4F0908003E0043C
:0206E500F02201
:10062100C2AF758921758CE0E4F58AD2A990800664
:10063100F0438780759850758DFF858D8BD28ED252
:10064100997524FF7525077526147BFF7A0679F4C1
:1006510012029B9080037401F0E4908235F07BFFDD
:100661007A0879891206857A0A791A120685D2AF33
:10067100D28C7A07791812029BE4FE1200030EBE97
:04068100FEF980F509
:030000000205876F
:10058700787FE4F6D8FD9080007F007E80E4F0A3BA
:0A059700DFFCDEFA7581530205DC7B
:03000B000208B731
:1008B700758CE0C0E075E0011208C51208D8C08346
:1008C700C082908006F0908002E004F0D082D0834E
:0A08D70022D0E0D0E0D0E00204934C
:10049300C2AFC0E0C0F0C083C082C0D012054B859C
:1004A30000F0787FE6F0A3D8FBE5F0F07805A3D061
:1004B300E0F0D8FAD000D001A3E581F0A374FFF0F7
:1004C300A3E8F0A3E9F0908235E004F0908003E024
:1004D300FF908235E0B50702E4F012054BAE82AF20
:1004E30083748912056BE070DD12055EE0F8120576
:1004F3005EE0F912055E12055EE0F581C000C00101
:10050300780512055EE0C0E0D8F812055EE0F5F06C
:100513008F838E82787FE0F6A3D8FB85F000D0D05E
:10052300D082D083D0F0D0E0C0E0C082C08390807E
:1005330006E0D083D0827005D0E0D2AF2275E00010
:100543001208C5D0E0D2AF32908235E075F08AA4AC
:10055300240DF582E5F03480F58322E582600315EE
:100563008222158385FF82228582F025F0F582E5BC
:10057300833400F58322E582C39401F582E58394F5
:0405830000F58322DA
:020A640005206B
:0709C900448246000000001B
:1009D100908009E0FCA3E0FDA3E0FEA3E0FF90828C
:0409E1004B0202487B
:0D0A2A0090824EE0FF90800CE0C39FFF2201
:030A4F00C2992227
:030A5200C2982225
:030A5500A2992241
:030A5800A298223F
:030A5B008F99224E
:030A5E00AF99222B
:10092C00AB071209D1120A554009120A2AEFC394D7
:10093C001040F2120A555008120A4FAF03020A5B1C
:02094C00C322C4
:080825008B1A8A1B891C8D1D32
:10082D00E4F51EAF1D151DEFD39400401BAB1A054B
:10083D001CE51CAA1B7002051B14F9120104FF1202
:0A084D00092C5004051E80DBAF1ECD
:01085700227E
:100909008B358A368937AB35AA36A937120104FFE8
:10091900601012092C74012537F537E43536F536A0
:0309290080E42245
:0407BB008E338F34B6
:1007BF0078447C827D017BFF7A0A79647E007F0218
:1007CF001200DE753A01753B82753C447B017A82DB
:1007DF00793EAD34AC3312039D7B017A82793E02B0
:0207EF000909F6
:06094E008B488A49894A2A
:10095400E4FFAB48054AE54AAA497002054914F97F
:0809640012010460030F80EA98
:01096C002268
:060778008B088A09890AC2
:10077E008B0F8A108911AF0E150EEFD39400402601
:10078E00AB0B050DE50DAA0C7002050C14F9120148
:10079E0004FFAB08050AE50AAA097002050914F957
:0C07AE00EF12016C80D0AB0FAA10A91153
:0107BA00221C
:060858008B128A138914C3
:10085E008B178A188919AF161516EFD3940040140A
:10086E00AB170519E519AA187002051814F9ED123F
:0A087E00016C80E2AB12AA13A9146A
:01088800224D
:1009F80053070F74302FFFD39439400474072FFF27
:010A080022CB
:10098800AE071209F8900001EF12017EEEC4540F71
:0A099800FEFF1209F8EF12016C22B5
:1008E100120104FFC39441400BEFD394465005EF2E
:1008F10024C9FF22EFC39430400BEFD39439500544
:07090100EF24D0FF227F006C
:0109080022CC
:06039D008B358A3689371A
:1003A300D200AB3AAA3BA93C120104F53D900001EF
:1003B30012011DF53E8C438D4485354085364185BC
:1003C3003742E53DC394055039AD3D7F0A12096DAF
:1003D3008E458F46AC45AD46AE43AF441201B28F56
:1003E3003F7E00AC45AD461201A0C3E5449FF544F2
:1003F300E5439EF543AE45AF467C007D0A1201B24C
:10040300800C753D05E53D14FD7F0A12096D8E458F
:100413008F46AF3D153DEFD394004058AC45AD46F4
:10042300AE43AF441201B28F3F7E00AC45AD4612DE
:1004330001A0C3E5449FF544E5439EF543AE45AFB4
:10044300467C007D0A1201B28E458F467430253FEB
:10045300F53FB43008300005853E3F8002C200AB53
:10046300400542E542AA417002054114F9E53F12F5
:10047300016C809EAB40AA41A942E412016C30009A
:0F0483000EAB40AA41A94290FFFF743012017ED8
:010492002247
:04096D008F47A90502
:100971007F017E00AD0119EDD394004009AD477CA4
:06098100001201A080EE4F
:01098700224D
:100A090030AF047F0180027F0090824FEFF0C2AFC8
:010A190022BA
:0D0A370090824FE06003D38001C392AF2294
:0B0A4400120A0974FF12014A020A376F
:1009A200120A09120104700A0412014A120A377F5C
:0809B2000022120A377F012226
:1009E5008B4B8A4C894DAB4BAA4CA94D1209A2EFF2
:0309F50070F42279
:030A6100020A4442
:060734008B4E8A4F895034
:10073A00E4FFAB4EAA4FA9508F8275830012011DA8
:10074A0060030F80ED908235E0FE04AB4EAA4FA9FC
:10075A00508F8275830012017E75F08AEEA424966A
:0E076A00F582E5F03480F5837401F00204930B
:0607F1008B518A5289536E
:1007F700E4FFAB51AA52A9538F8275830012011DE2
:10080700601775F08AA4240CF582E5F03480F5832F
:0D081700E4F08F82F58312017E0FBF04D53F
:0108240022B1
:1005A100020621E493A3F8E493A34003F68001F249
:1005B10008DFF48029E493A3F85407240CC8C3335B
:1005C100C4540F4420C8834004F456800146F6DF2A
:1005D100E4800B01020408102040809009BAE47EF7
:1005E100019360BCA3FF543F30E509541FFEE4931F
:1005F100A360010ECF54C025E060A840B8E493A3E6
:10060100FAE493A3F8E493A3C8C582C8CAC583CA10
:10061100F0A3C8C582C8CAC583CADFE9DEE780BEC8
:0109D0000026
:10000E00E709F608DFFA8046E709F208DFFA803ED4
:10001E0088828C83E709F0A3DFFA8032E309F608C1
:10002E00DFFA8078E309F208DFFA807088828C8329
:10003E00E309F0A3DFFA806489828A83E0A3F608DD
:10004E00DFFA805889828A83E0A3F208DFFA804CB7
:10005E0080D280FA80C680D4806980F2803380108E
:10006E0080A680EA809A80A880DA80E280CA8033F7
:10007E0089828A83ECFAE493A3C8C582C8CCC5836F
:10008E00CCF0A3C8C582C8CCC583CCDFE9DEE7803F
:10009E000D89828A83E493A3F608DFF9ECFAA9F0BE
:1000AE00EDFB2289828A83ECFAE0A3C8C582C8CC14
:1000BE00C583CCF0A3C8C582C8CCC583CCDFEADE2D
:1000CE00E880DB89828A83E493A3F208DFF980CC8F
:1000DE0088F0EF60010E4E60C388F0ED2402B40488
:1000EE000050B9F582EB2402B4040050AF2323452F
:0600FE00822390005E73F6
:10010400BB010689828A83E0225002E722BBFE02F9
:09011400E32289828A83E493222C
:10011D00BB010CE58229F582E5833AF583E0225097
:10012D0006E92582F8E622BBFE06E92582F8E222E1
:0D013D00E58229F582E5833AF583E49322FB
:10014A00BB010989828A83F8E028F022500327F745
:10015A0022BBFE05F8E328F3228A838982F8E49316
:02016A00282249
:10016C00BB010689828A83F0225002F722BBFE0172
:02017C00F3226C
:10017E00F8BB010DE58229F582E5833AF583E8F0B7
:10018E00225006E92582C8F622BBFE05E92582C863
:02019E00F2224B
:1001A000EF8DF0A4A8F0CF8CF0A428CE8DF0A42E73
:0201B000FE222D
:1001B200BC000BBE0029EF8DF084FFADF022E4CC31
:1001C200F875F008EF2FFFEE33FEEC33FCEE9DECFA
:1001D200984005FCEE9DFE0FD5F0E9E4CEFD22ED40
:1001E200F8F5F0EE8420D21CFEADF075F008EF2F8A
:1001F200FFED33FD4007985006D5F0F222C398FD7B
:050202000FD5F0EA2217
:10020700A3F8E0C5F025F0F0E582158270021583AA
:06021700E0C838F0E82207
:10021D00BB010A89828A83E0F5F0A3E022500687AC
:10022D00F009E71922BBFE07E3F5F009E31922896E
:0B023D00828A83E493F5F074019322A1
:0C024800ECF0A3EDF0A3EEF0A3EFF02229
:10025400BB010789828A8302027D5005E9F8020204
:1002640074BBFE05E9F802028689828A8302028F42
:09027400E6FB08E6FA08E6F922AF
:09027D00E0FBA3E0FAA3E0F92282
:09028600E2FB08E2FA08E2F922A9
:0C028F00E493FB740193FA740293F922CB
:00000001FF
