:1004170074696D650068656C70007073006672655D
:100427006500257825780D0A0050315F3120646F0B
:10043700776E210D0A0025732070656E64696E67FB
:100447000D0A002573206F70656E0D0A0025732055
:10045700636C6F73650D0A000D0A0D0A48656C6CB5
:100467006F2C207468697320697320436C65616E13
:100477004F53403531205625730D0A00302E330077
:100487005368656C6C206C696B6520496E74657286
:10049700666163650054696D657220636F756E747C
:1004A70065720050312E31206D6F6E69746F720066
:1004B700310032004E6F77207461736B2073746163
:1004C70072742072756E696E67202E2E2E0D0A00CB
:1004D700436C65616E4F534035313E000D0A005540
:1004E7006E6B6E6F7720636F6D6D616E643A257307
:1004F7000D0A004E6F7720636F756E742069732045
:10050700256425640D0A0025730D0A0052756E6E69
:10051700696E670050656E64696E67002020202051
:1005270050494409537461747573094E616D650DC3
:100537000A0025630925730925730D0A00467265AC
:1005470065206D656D6F727920697320256420625F
:0C055700797465732E0D0A000513051B56
:100CB400428080000042808F000042808800004211
:100CC400808A000042808203E8184DFF0417FF0F5A
:100CD400A7FF041CFF0E39FF0421FF0A9CFF042414
:080CE400FF10084280860000A9
:1002CB0090808FE0FCA3E02489F582E43CF583E089
:0C02DB00FBA3E0FAA3E08B298A2AF52B94
:0402E7008E278F28A7
:1002EB00908098E4F0A37400F0A37429F085288221
:1002FB00852783E493FF70030204126425601705BE
:10030B0028E528AE277002052714F5828E83E49327
:10031B00FF120EA480D70528E52870020527F58269
:10032B00852783E493249D606514604424F1601158
:10033B0024FB70030203C4245360030203E902038A
:10034B00FB908098E0FBA3E475F0031201E5A9F0A4
:10035B00FA12027E908093EBF0A3EAF0A3E9F090FF
:10036B008093E0FBA3E0FAA3E0F9120E81020407ED
:10037B00908098E0FBA3E475F0021201E5A9F0FA76
:10038B001201FBFF908096E5F0F0A3EF801D9080AB
:10039B0098E0FBA3E475F0011201E5A9F0FA120154
:1003AB0004FE3395E0908096F0A3CEF0908096E01B
:1003BB00FEA3E0FF120D718043908098E0FBA3E455
:1003CB0075F0011201E5A9F0FA120104FE3395E074
:1003DB00908096F0A3CEF0E0FF120F38801EE52838
:1003EB0024FFF582E52734FFF583E493FF120EA477
:1003FB00852882852783E493FF120EA40528E52820
:0B040B00700205270202F87E007F014E
:0104160022C3
:100E0B00908085E0D394DF40F7E4F090808EE0048F
:100E1B00F0700690808DE004F0B2927E047F2990F2
:0E0E2B00808DE0F529A3E0F52A1202E780D2BF
:0E0FFA00D2912091FD7E047F301202E780F438
:100CF5007E807F8C120EE6EF60127E047F3D12022D
:100D0500CB7B017A807986120B2280E47E047F4AB0
:100D150090808FE0FCA3E02489F582E43CF583E034
:0F0D2500FBA3E0FAA3E08B298A2AF52B0202E751
:100F50007E047F541202CB7E807F8C120FDA7B01DD
:070F60007A807986020B9AEA
:100EC60090808DE0F522A3E0F523E5232FFDE522B2
:0F0ED6003EFCC390808EE09D90808DE09C40EBB1
:010EE50022EA
:100F6700120CF57F0A7E00120EC6120F507F037E09
:060F770000120EC680EA24
:100F7D00120CF57F067E00120EC6120F507F057EF5
:060F8D0000120EC680EA0E
:0A0953008E228F238B248A2589262B
:10095D007F8F7E00120676EF4E70057EFF7FFF22A1
:10096D00EF2486F582E43EF583E522F0A3E523F03E
:10097D00EF2485F582E43EF5837461F0EF245CF598
:10098D0082E43EF583E4F0A3E522F0A3E523F0F93C
:10099D00EF245AF582E43EF583E4F0A3E522F0A3BB
:1009AD00E9F0EF2488F582E43EF583E4F0EF248945
:1009BD00F582E43EF583E524F0A3E525F0A3E526D5
:1009CD00F0908091E0FD04F0EF248EF582E43EF589
:1009DD0083EDF0908080E0FCA3E0FDEF248CF582A8
:1009ED00E43EF583ECF0A3EDF0908080EEF0A3EF04
:0109FD00F009
:0109FE0022D6
:10056300C2AF758921758CE0E4F58AD2A990809297
:10057300F0438780759850758DFF858D8BD28ED211
:10058300991200067E047F5F7529FF752A04752B77
:10059300831202E7E4908091F0908080E0FFA3E073
:1005A30090808FCFF0A3EFF075815D7E057F637B35
:1005B300FF7A047987120953908080E0FFA3E090CB
:1005C300808FCFF0A3EFF07E0E7F0B7BFF7A047951
:1005D3009C1209537E0F7FFA7BFF7A0479AA1209D2
:1005E300537E0F7F677BFF7A0479B71209537E0F1F
:1005F3007F7D7BFF7A0479B9120953D2AFD28C7E07
:10060300047FBB1202E7E4908084F07B017A807957
:1006130000752680FD120DDA7E047FD71202E712E1
:100623000E39121030EF60FA120006859921E52188
:10063300640D6020908084E0C3947F50E5E0FF0464
:10064300F074002FF582E43480F583E521F0FF1286
:100653000EA480CE120C017B017A8079007526806E
:10066300E4FD120DDA7E047FD71202E7E490808462
:03067300F080AF65
:100C01007E047FE31202E7908000E06050E4F52269
:100C1100E52275F006A4244DF8860308E6FA08E6F5
:100C21008B268A27F5287B017A807900120C5FEFE9
:100C31007012E52275F006A42450F808E6FA08E6D9
:100C4100F902029E0522E522C3940440C37E047F7B
:0D0C5100E6752901752A80752B001202E757
:010C5E002273
:100FA7007E047FFA90808DE0F529A3E0F52A0202FE
:010FB700E752
:100E3900E4F5227E057F0EE52275F006A4244DF81F
:100E4900860308E6FA08E61202E10522E522C394C0
:030E59000440E072
:010E5C002273
:100A9C0078237C007D007BFF7A05795F7E007F04E4
:100AAC001200DE7E057F231202E7908080805CE5D9
:100ABC0022452160607E057F39E522248EF582E493
:100ACC003521F583E0F529E5222488F582E43521EA
:100ADC00F583E025E02423F8E6FC08E6AA04752A51
:100AEC00FF8A2BF52CE5222489F582E43521F58348
:100AFC00E0FBA3E0FAA3E08B2D8A2EF52F1202E780
:100B0C00E522248CF582E43521F583E0FEA3E08E0A
:050B1C0021F522809A82
:010B210022B1
:0E100800120D348E298F2A7E057F440202E7E6
:03000B0002086781
:0B086700C0E0C083C082C0D075D00884
:10087200908092E06004E4F08006908085E004F0CD
:10088200E4F9E9C39480501BA809E6FFE9FD7C0066
:1008920090808FE0FAA3E02DF582EC3AF583EFF039
:1008A2000980DF90808FE0FEA3E02485F582E43E9C
:1008B200F583E581F090808FE0FEA3E0248CF58241
:1008C200E43EF583E0FEA3E0FF90808FEEF0A3EF1D
:1008D200F04E700F908080E0FFA3E090808FCFF009
:1008E200A3EFF090808FE0FEA3E02488F582E43E3F
:1008F200F583E070C0F9E9C394085019E9FF7E005E
:1009020090808FE0FCA3E02FF582EE3CF583E0A817
:1009120009F60980E17910E9C394805019E9FF7E54
:100922000090808FE0FCA3E02FF582EE3CF583E09F
:10093200A809F60980E190808FE0FEA3E02485F506
:0809420082E43EF583E0F5813B
:09094A00D0D0D082D083D0E0327D
:030000000209FFF3
:1009FF00787FE4F6D8FD9080007F007E80E4F0A33E
:0D0A0F00DFFCDEFA75A090758164020A57C5
:020009000520D0
:100F930090808DE0FCA3E0FDA3E0FEA3E0FF908042
:040FA300A302027231
:0D1016009080A6E0FF908090E0C39FFF2235
:03000300C299227D
:03000600C298227B
:03104300A299224D
:0A1030003098047F0180027F002247
:031046008F99225D
:100EA400AB07120F931210434009121016EFC394AC
:100EB4001040F21210435008120003AF0302104610
:020EC400C32247
:080DA7008B3A8A3B893C8D3D2B
:100DAF00E4F53EAF3D153DEFD39400401BAB3A0544
:100DBF003CE53CAA3B7002053B14F9120104FF12FB
:0A0DCF000EA45004053E80DBAF3E89
:010DD90022F7
:100F38007B007A007938120F1E7D02120DA7EFC3CD
:070F480094025002C322D302
:010F4F00227F
:100E81008B3A8A3B893CAB3AAA3BA93C120104FF4D
:100E91006010120EA47401253CF53CE4353BF53B92
:030EA10080E422C8
:040D71008E388F39F0
:100D750078A17C807D017BFF7A0079097E007F0266
:100D85001200DE753F017540807541A17B017A80B7
:100D9500799BAD39AC381207717B017A80799B025A
:020DA5000E81BD
:060DDA008B228A2389240C
:100DE0008B278A288929AF261526EFD39400401433
:100DF000AB270529E529AA287002052814F9ED1268
:0A0E0000014A80E2AB22AA23A924D4
:010E0A0022C5
:100C5F008B238A248925AB23AA24A925120104FEFC
:100C6F006030AB26AA27A92812010460250528E5C4
:100C7F00287002052714F9120104FFAB230525E59F
:100C8F0025AA247002052414F91201046F60C77F8E
:100C9F000122AB26AA27A928120104B506047F005A
:050CAF0080027F01221C
:100FB80053070F74302FFFD39439400474072FFF61
:010FC8002206
:100F1E00AE07120FB8900001EF12015CEEC4540F31
:0A0F2E00FEFF120FB8EF12014A2275
:060771008B3A8A3B893C33
:10077700D200AB3FAA40A941120104F54290000103
:1007870012011DF5438C488D49853A45853B4685C1
:100797003C47E542C394055039AD427F0A120F0327
:1007A7008E4A8F4BAC4AAD4BAE48AF491201908F82
:1007B700447E00AC4AAD4B12017EC3E5499FF54923
:1007C700E5489EF548AE4AAF4B7C007D0A12019082
:1007D700800C754205E54214FD7F0A120F038E4A0D
:1007E7008F4BAF421542EFD394004058AC4AAD4B04
:1007F700AE48AF491201908F447E00AC4AAD4B1210
:10080700017EC3E5499FF549E5489EF548AE4AAFE5
:100817004B7C007D0A1201908E4A8F4B7430254421
:10082700F544B430083000058543448002C200AB6C
:10083700450547E547AA467002054614F9E54412FF
:10084700014A809EAB45AA46A947E412014A3000F7
:0F0857000EAB45AA46A94790FFFF743012015C13
:01086600226F
:040F03008F4CA90561
:100F07007F017E00AD0119EDD394004009AD4C7C03
:060F17000012017E80EED5
:010F1D0022B1
:100FC90030AF047F0180027F009080A8EFF0C2AFAC
:010FD90022F5
:0D1023009080A8E06003D38001C392AF224B
:09103A009080927401F0D28D2225
:100FDA00AD07AC06120FC98D828C83E014F00210A3
:010FEA0023E3
:100EE600AD07AC06120FC98D828C83E07009E00451
:0D0EF600F01210237F00221210237F012232
:0F0FEB00AB07AA06AF03AE02120EE6EF70F622B6
:03104900020FDAB9
:060B22008B228A238924C6
:100B28007F047E00120676AA06A9077525018A2683
:100B380089277E807FA7120FEBAB22AA23A9241254
:100B480001FBFFAB25AA26A927900002E5F08FF04C
:100B5800120245AE02AF01AB22AA23A924EE8FF000
:100B680012022690808FE0FFA3E0AB25AA26A927D2
:100B7800CF8FF012022690808FE0FEA3E02488F544
:100B880082E43EF5837401F07E807FA7121049024B
:020B9800103A11
:060B9A008B228A2389244E
:100BA0007E807FA7120FEBAB22AA23A9241201FBA0
:100BB00045F060461201FBFFAEF0F5828E83E0FC4B
:100BC000A3E02488F582E43CF583E4F0AA06A907B3
:100BD0007525018A268927AA23A9241201FBF582FB
:100BE00085F083A3A3E0FFA3E0CF8FF0120226AB32
:100BF00025AA26A927120E5D80AD7E807FA7021050
:010C000049AA
:080CEC004180AA004180A9002B
:040676008E288F2912
:10067A00752AA0752B007E807FAA120EE6EF700CF9
:10068A00852B82852A837460F0A3E4F074022529FD
:10069A00F529E43528F528C3E529940CE5289400C2
:1006AA00500675280075290C7E807FA9120FEB85EC
:1006BA002B82852A83E0547FFEA3E0FF852B828567
:1006CA002A83E030E7047D0080027D01ED6041E588
:1006DA002B2FFDE52A3EFC4D602D8D828C83E03068
:1006EA00E7047B0080027B01EB700D852B82852A53
:1006FA0083EEF0A3EFF0800F8D828C83E0FAA3E003
:10070A002FFFEA3EFE80C8D3EF9529EE95285011B7
:10071A00EF252BF52BEE352AF52A452B7091FEFF96
:10072A0022C3EF9529FFEE9528FEC3EF940CEE94B1
:10073A00004023E52B2529F582E52A3528F583EEA5
:10074A00F0A3EFF0E42529FEE5283480852B828585
:10075A002A83F0A3CEF07E807FA9121049E52B24CC
:06076A0002FFE4352AFE47
:010770002266
:100E5D008F828E8374FE2582F58274FF3583F58330
:100E6D00C083C082E0547FFFA3E0D082D083CFF057
:040E7D00A3EFF022CD
:100D34007F007EA0E4F521F5228F828E83E0547F2C
:100D4400FCA3E0FD8F828E83E030E7047B00800209
:100D54007B01EB600AED2522F522EC3521F521ED2E
:0C0D64002FFFEC3EFE4F70D1AE21AF22FD
:010D70002260
:100A1C00020563E493A3F8E493A34003F68001F288
:100A2C0008DFF48029E493A3F85407240CC8C333DB
:100A3C00C4540F4420C8834004F456800146F6DFAA
:100A4C00E4800B0102040810204080900CB4E47E7A
:100A5C00019360BCA3FF543F30E509541FFEE4939F
:100A6C00A360010ECF54C025E060A840B8E493A366
:100A7C00FAE493A3F8E493A3C8C582C8CAC583CA91
:100A8C00F0A3C8C582C8CAC583CADFE9DEE780BE49
:010CF40000FF
:10000E00E709F608DFFA8046E709F208DFFA803ED4
:10001E0088828C83E709F0A3DFFA8032E309F608C1
:10002E00DFFA8078E309F208DFFA807088828C8329
:10003E00E309F0A3DFFA806489828A83E0A3F608DD
:10004E00DFFA805889828A83E0A3F208DFFA804CB7
:10005E0080D280FA80C680D4806980F2803380108E
:10006E0080A680EA809A80A880DA80E280CA8033F7
:10007E0089828A83ECFAE493A3C8C582C8CCC5836F
:10008E00CCF0A3C8C582C8CCC583CCDFE9DEE7803F
:10009E000D89828A83E493A3F608DFF9ECFAA9F0BE
:1000AE00EDFB2289828A83ECFAE0A3C8C582C8CC14
:1000BE00C583CCF0A3C8C582C8CCC583CCDFEADE2D
:1000CE00E880DB89828A83E493A3F208DFF980CC8F
:1000DE0088F0EF60010E4E60C388F0ED2402B40488
:1000EE000050B9F582EB2402B4040050AF2323452F
:0600FE00822390005E73F6
:10010400BB010689828A83E0225002E722BBFE02F9
:09011400E32289828A83E493222C
:10011D00BB010CE58229F582E5833AF583E0225097
:10012D0006E92582F8E622BBFE06E92582F8E222E1
:0D013D00E58229F582E5833AF583E49322FB
:10014A00BB010689828A83F0225002F722BBFE0194
:02015A00F3228E
:10015C00F8BB010DE58229F582E5833AF583E8F0D9
:10016C00225006E92582C8F622BBFE05E92582C885
:02017C00F2226D
:10017E00EF8DF0A4A8F0CF8CF0A428CE8DF0A42E95
:02018E00FE224F
:10019000BC000BBE0029EF8DF084FFADF022E4CC53
:1001A000F875F008EF2FFFEE33FEEC33FCEE9DEC1C
:1001B000984005FCEE9DFE0FD5F0E9E4CEFD22ED62
:1001C000F8F5F0EE8420D21CFEADF075F008EF2FAC
:1001D000FFED33FD4007985006D5F0F222C398FD9D
:0501E0000FD5F0EA223A
:1001E500A3F8E0C5F025F0F0E582158270021583CD
:0601F500E0C838F0E8222A
:1001FB00BB010A89828A83E0F5F0A3E022500687CF
:10020B00F009E71922BBFE07E3F5F009E319228990
:0B021B00828A83E493F5F074019322C3
:10022600BB010A89828A83F0E5F0A3F0225006F723
:0F02360009A7F01922BBFE06F3E5F009F3192220
:10024500F8BB0111E58229F582E5833AF583E8F0EB
:10025500E5F0A3F0225009E92582C8F608A6F022A8
:0D026500BBFE09E92582C8F2E5F008F2228F
:0C027200ECF0A3EDF0A3EEF0A3EFF022FF
:10027E00BB010789828A830202AD5005E9F80202AA
:10028E00A4BBFE05E9F80202B689828A830202BF88
:06029E008A838982E473EB
:0902A400E6FB08E6FA08E6F9227F
:0902AD00E0FBA3E0FAA3E0F92252
:0902B600E2FB08E2FA08E2F92279
:0C02BF00E493FB740193FA740293F9229B
:00000001FF
