:100794007373737373730D0A00416464696E672025
:1007A4007461736B000D0A0048656C6C6F0D0A0070
:0F0845004280030000428005000042800003E86B
:06000300E4FF0FBFFFFC4B
:0100090022D4
:0405BE00AD07AC06D3
:1005C200D3908001E09DEC6480F8908000E064802C
:1005D20098401D120003E0FEA3E0FBAA06120003EE
:1005E200C3EB9DFBEA9C908000F0A3EBF07F01221D
:0205F2007F0088
:0105F40022E4
:10070800752203752320C291E4908003F0A3F0AF13
:1007180023AE221205BEEF60F6D291908003E4F07A
:05072800A304F080EACB
:10065C00752403752584C291E4908005F0A3F0AF56
:10066C0025AE241205BEEF600AD291908005E4F00D
:10067C00A304F0B2927BFF7A07799412082080DFF2
:100425008B228A238924908002E0FF75F08AA42418
:100435008DF582E5F03480F583EBF0A3EAF0A3E9CE
:10044500F075F08AEFA4248CF582E5F03480F5830D
:100455007450F075F08AEFA42433F582E5F034800A
:10046500F583EBF0A3EAF0A3E9F0908002E004F055
:100475007BFF7A07799D120820908002E0FF7E00BD
:0C0485001205F57BFF7A0779A902082018
:1004E600C2AF758922758C10758AFED2A9438780A2
:1004F600759850758DFF858D8BD28ED2999080021E
:100506007401F0E490822FF07BFF7A0779081204D9
:10051600257BFF7A06795C120425D2AFD28C7BFF4D
:100526007A0779AC1208207BFF7A0779AC1208208B
:0205360080F54E
:030000000203995F
:0C039900787FE4F6D8FD7581580203E07F
:03000B000202DB13
:1002DB00C0E0C0F0C083C082C0D01203788500F0AC
:1002EB00787FE6F0A3D8FBE5F0F07805A3D0E0F03B
:1002FB00D8FAD000D001A3E581F0A374FFF0A3E8F6
:10030B00F0A3E9F090822FE004F0908002E0FF90E0
:10031B00822FE0B50702E4F0120378AE82AF83E5DB
:10032B00822488F582E5833400F583E0F812038B91
:10033B00E0F912038B12038BE0F581C000C001784A
:10034B000512038BE0C0E0D8F812038BE0F5F08FB9
:10035B00838E82787FE0F6A3D8FB85F000D0D0D0D7
:10036B0082D083D0F0D0E0C28D858C8A3290822FE0
:10037B00E075F08AA42407F582E5F03480F583223A
:0E038B00E582C39401F582E5839400F5832298
:02087A00052057
:04085E00E4F5582243
:03086200AF58226A
:03086500D2992203
:03086800C2992210
:03086B00C298220E
:03086E00A299222A
:03087100A2982228
:030874008F992237
:03087700AF992214
:10077300AE0712085E12086E4008120862EF94106A
:1007830040F312086E5008120868AF06020874C3DB
:010793002243
:10072D0012085E1208714008120862EF941040F32F
:10073D00120871500C12086B120877EF12014AD390
:03074D0022C322A2
:06068C008B328A33893431
:10069200E4FCAF051DEFD39400401AAB320534E5FC
:1006A20034AA337002053314F9120104FF120773DE
:0706B20050030C80DDAF04D2
:0106B900221E
:0606E2008B1D8A1E891F1A
:1006E800E4FEEEC39D5016AB1D051FE51FAA1E7044
:0F06F80002051E14F912072D50030E80E5AF0600
:0107070022CF
:100808007B007A0079541207EE7D0212068CEFC342
:0708180094025002C322D339
:01081F0022B6
:100820008B2F8A3089311207B4AD07AB2FAA30A9BC
:040830003102068CFF
:0405F5008E258F269A
:1005F900782D7C007D007BFF7A08797A7E007F0266
:100609001200DE75340075350075362D7B007A00D1
:100619007927AD26AC251201E57B007A00792702FE
:020629000820A7
:0607B4008B328A33893408
:1007BA00E4FFAB320534E534AA337002053314F989
:0807CA0012010460030F80EA34
:0107D2002204
:060538008B138A148915E3
:10053E008B1A8A1B891CAF191519EFD3940040260C
:10054E00AB160518E518AA177002051714F9120153
:10055E0004FFAB130515E515AA147002051414F962
:0C056E00EF12014A80D0AB1AAA1BA91C96
:01057A00225E
:06062B008B428A43894462
:100631008B478A488949AF461546EFD39400401449
:10064100AB470549E549AA487002054814F9ED127E
:0A065100014A80E2AB42AA43A9442B
:01065B00227C
:1008340053070F74302FFFD39439400474072FFFEC
:010844002291
:1007EE00AE07120834900001EF12015CEEC4540FF4
:0A07FE00FEFF120834EF12014A2238
:1006BA00120104FFC39441400BEFD394465005EF57
:1006CA0024C9FF22EFC39430400BEFD3943950056D
:0706DA00EF24D0FF227F0096
:0106E10022F6
:060750008B518A5289530F
:10075600E4FE1206BAEE2FC454F0FEAB51E5532464
:0C07660001F9E43552FA1206BAEF2EFF3A
:010772002264
:060491008B088A09890AAC
:10049700E4F50F8B108A118912AB0BAA0CA90D1268
:1004A70007B4EFC313F50EAF0E150EEFD39400404C
:1004B70027E50F75F002A4AB0B250DF9E50C35F018
:1004C700FA120750AB08AA09A90A850F827583009B
:0E04D700EF12015C050F80CFAB10AA11A91225
:0104E50022F4
:080855008F568D57AE56AF57C8
:01085D002278
:10057B008B4A8A4B894CAF501550EFD394004028CF
:10058B00AB4D054FE54FAA4E7002054E14F9120103
:10059B0004FFAB4AAA4BA94C1207EE7402254CF58B
:1005AB004CE4354BF54B80CEAB4AAA4BA94CE4122D
:0305BB00014A22D0
:0601E5008B2F8A308931E6
:1001EB00D200AB34AA35A936120104F537900001C1
:1001FB0012011DF5388C3D8D3E852F3A85303B85A0
:10020B00313CE537C394055039AD377F0A1207D31C
:10021B008E3F8F40AC3FAD40AE3DAF3E1201908F55
:10022B00397E00AC3FAD4012017EC3E53E9FF53EEB
:10023B00E53D9EF53DAE3FAF407C007D0A1201903F
:10024B00800C753705E53714FD7F0A1207D38E3FF7
:10025B008F40AF371537EFD394004058AC3FAD40CC
:10026B00AE3DAF3E1201908F397E00AC3FAD4012D8
:10027B00017EC3E53E9FF53EE53D9EF53DAE3FAFAE
:10028B00407C007D0A1201908E3F8F4074302539DF
:10029B00F539B430083000058538398002C200AB1F
:1002AB003A053CE53CAA3B7002053B14F9E53912D3
:1002BB00014A809EAB3AAA3BA93CE412014A3000AA
:0F02CB000EAB3AAA3BA93C90FFFF743012015CC6
:0102DA002201
:0407D3008F41A905A4
:1007D7007F017E00AD0119EDD394004009AD417C46
:0607E7000012017E80EE0D
:0107ED0022E9
:1003A5000204E6E493A3F8E493A34003F68001F284
:1003B50008DFF48029E493A3F85407240CC8C33359
:1003C500C4540F4420C8834004F456800146F6DF28
:1003D500E4800B0102040810204080900845E47E6B
:1003E500019360BCA3FF543F30E509541FFEE4931D
:1003F500A360010ECF54C025E060A840B8E493A3E4
:10040500FAE493A3F8E493A3C8C582C8CAC583CA0E
:10041500F0A3C8C582C8CAC583CADFE9DEE780BEC6
:0108540000A3
:10000E00E709F608DFFA8046E709F208DFFA803ED4
:10001E0088828C83E709F0A3DFFA8032E309F608C1
:10002E00DFFA8078E309F208DFFA807088828C8329
:10003E00E309F0A3DFFA806489828A83E0A3F608DD
:10004E00DFFA805889828A83E0A3F208DFFA804CB7
:10005E0080D280FA80C680D4806980F2803380108E
:10006E0080A680EA809A80A880DA80E280CA8033F7
:10007E0089828A83ECFAE493A3C8C582C8CCC5836F
:10008E00CCF0A3C8C582C8CCC583CCDFE9DEE7803F
:10009E000D89828A83E493A3F608DFF9ECFAA9F0BE
:1000AE00EDFB2289828A83ECFAE0A3C8C582C8CC14
:1000BE00C583CCF0A3C8C582C8CCC583CCDFEADE2D
:1000CE00E880DB89828A83E493A3F208DFF980CC8F
:1000DE0088F0EF60010E4E60C388F0ED2402B40488
:1000EE000050B9F582EB2402B4040050AF2323452F
:0600FE00822390005E73F6
:10010400BB010689828A83E0225002E722BBFE02F9
:09011400E32289828A83E493222C
:10011D00BB010CE58229F582E5833AF583E0225097
:10012D0006E92582F8E622BBFE06E92582F8E222E1
:0D013D00E58229F582E5833AF583E49322FB
:10014A00BB010689828A83F0225002F722BBFE0194
:02015A00F3228E
:10015C00F8BB010DE58229F582E5833AF583E8F0D9
:10016C00225006E92582C8F622BBFE05E92582C885
:02017C00F2226D
:10017E00EF8DF0A4A8F0CF8CF0A428CE8DF0A42E95
:02018E00FE224F
:10019000BC000BBE0029EF8DF084FFADF022E4CC53
:1001A000F875F008EF2FFFEE33FEEC33FCEE9DEC1C
:1001B000984005FCEE9DFE0FD5F0E9E4CEFD22ED62
:1001C000F8F5F0EE8420D21CFEADF075F008EF2FAC
:1001D000FFED33FD4007985006D5F0F222C398FD9D
:0501E0000FD5F0EA223A
:00000001FF
