:1004D9007373737373732C66726F6D207461736BAE
:1004E900203131313131310D0A00737373737373F4
:1004F9002C66726F6D207461736B20323232323226
:100509000D0A0048656C6C6F0D0A0048656C6C6FCC
:100519002C20746869732069732066726F6D20746A
:0805290061736B20300D0A0024
:0F0868004280030000428006000042800003E847
:06000300E4FF0FBFFFFC4B
:0100090022D4
:04065A00AD07AC0636
:10065E00D3908001E09DEC6480F8908000E064808F
:10066E0098401D120003E0FEA3E0FBAA0612000351
:10067E00C3EB9DFBEA9C908000F0A3EBF07F012280
:02068E007F00EB
:010690002247
:10075C00752203752320C291E4908003F0A3F0AFBF
:10076C0023AE2212065AEF600AD291908003E4F075
:0E077C00A304F07BFF7A0479D912087F80E194
:10072C00752403752584C291E4908006F0A3F0AF84
:10073C0025AE2412065AEF600AD291908006E4F09E
:10074C00A304F0B2927BFF7A0479F312087F80DF66
:100531008B228A238924908002E0FF75F08AA4240B
:100541008EF582E5F03480F583EBF0A3EAF0A3E9C0
:10055100F075F08AEFA4248DF582E5F03480F583FF
:100561007450F075F08AEFA42434F582E5F03480FC
:10057100F583EBF0A3EAF0A3E9F0908002E004F048
:010581002257
:10058200C2AF758921758CE0E4F58AD2A990800505
:10059200F0438780759850758DFF858D8BD28ED2F2
:1005A2009990800204F0E4908230F07BFF7A077920
:1005B2005C1205317A07792C120531D2AFD28C7ACE
:1005C20005790C12087F7BFF7A05791412087F8067
:0105D200F533
:030000000203F107
:0C03F100787FE4F6D8FD75814C020438DA
:03000B000207B237
:1007B200758CE0C0E075E0011207C01207CDC0835E
:1007C200C082908005F0D082D08322D0E0D0E0D0E9
:0407D200E00202FD42
:1002FD00C2AFC0E0C0F0C083C082C0D01203B585CC
:10030D0000F0787FE6F0A3D8FBE5F0F07805A3D0F8
:10031D00E0F0D8FAD000D001A3E581F0A374FFF08E
:10032D00A3E8F0A3E9F0908230E004F0908002E0C1
:10033D00FF908230E0B50702E4F01203B5AE82AF54
:10034D008374891203D5E070DD1203C8E0F812033F
:10035D00C8E0F91203C81203C8E0F581C000C0015E
:10036D0078051203C8E0C0E0D8F81203C8E0F5F034
:10037D008F838E82787FE0F6A3D8FB85F000D0D0F6
:10038D00D082D083D0F0D0E0C0E0C082C083908016
:10039D0005E0D083D0827005D0E0D2AF2275E000A9
:1003AD001207C0D0E0D2AF32908230E075F08AA44F
:1003BD002408F582E5F03480F58322E5826003158B
:1003CD008222158385FF82228582F025F0F582E554
:1003DD00833400F58322E582C39401F582E583948D
:0403ED0000F5832272
:0208E3000520EE
:070877004482310000000083
:0408C700E4F51D2215
:0308CB00AF1D223C
:0308CE00C29922AA
:0308D100C29822A8
:0308D400A29922C4
:0308D700A29822C2
:0308DA008F9922D1
:0308DD00AF9922AE
:1007D600AE071208C71208D440081208CBEF9410CF
:1007E60040F31208D450081208CEAF060208DAC346
:0107F60022E0
:08047D008B298A2A892B8D2CA2
:10048500E4F52D7B017A827935120816EF600B7B36
:10049500017A8279311205D380E9AF2C152CEFD37F
:1004A5009400401BAB29052BE52BAA2A7002052ACF
:1004B50014F9120104FF1207D65004052D80DB7BC9
:1004C500017A8279351208B77B017A827931120671
:0304D500C7AF2D81
:0104D8002201
:10087F008B268A2789281207F7AD07AB26AA27A947
:04088F002802047DBA
:040691008E318F32E5
:1006950078397C007D007BFF7A0879E37E007F0254
:1006A5001200DE750D00750E00750F397B007A009E
:1006B5007933AD32AC311202077B007A007933020F
:0206C500087FAC
:0607F7008B298A2A892BE0
:1007FD00E4FFAB29052BE52BAA2A7002052A14F973
:08080D0012010460030F80EAF0
:0108150022C0
:060617008B3B8A3C893D8B
:10061D008B428A438944AF411541EFD39400402664
:10062D00AB3E0540E540AA3F7002053F14F91201AB
:10063D0004FFAB3B053DE53DAA3C7002053C14F9BA
:0C064D00EF12016C80D0AB42AA43A9441C
:01065900227E
:0606FB008B458A46894789
:100701008B4A8A4B894CAF491549EFD39400401469
:10071100AB4A054CE54CAA4B7002054B14F9ED129E
:0A072100016C80E2AB45AA46A9472F
:01072B0022AB
:1008A60053070F74302FFFD39439400474072FFF7A
:0108B600221F
:10084E00AE071208A6900001EF12017EEEC4540FFF
:0A085E00FEFF1208A6EF12016C2243
:10078A00120104FFC39441400BEFD394465005EF86
:10079A0024C9FF22EFC39430400BEFD3943950059C
:0707AA00EF24D0FF227F00C5
:0107B1002225
:060207008B088A09890A38
:10020D00D200AB0DAA0EA90F120104F5109000013A
:10021D0012011DF5118C168D17850813850914858E
:10022D000A15E510C394055039AD107F0A12083335
:10023D008E188F19AC18AD19AE16AF171201B28FFB
:10024D00127E00AC18AD191201A0C3E5179FF5176A
:10025D00E5169EF516AE18AF197C007D0A1201B297
:10026D00800C751005E51014FD7F0A1208338E18E9
:10027D008F19AF101510EFD394004058AC18AD196D
:10028D00AE16AF171201B28F127E00AC18AD191257
:10029D0001A0C3E5179FF517E5169EF516AE18AF2D
:1002AD00197C007D0A1201B28E188F197430251237
:1002BD00F512B430083000058511128002C200AB72
:1002CD00130515E515AA147002051414F9E512129B
:1002DD00016C809EAB13AA14A915E412016C3000B9
:0F02ED000EAB13AA14A91590FFFF743012017EF7
:0102FC0022DF
:040833008F1EA90566
:100837007F017E00AD0119EDD394004009AD1E7C08
:06084700001201A080EE8A
:01084D002288
:0F08B700A2AF9201C2AF74FF12014AA20192AF29
:0108C600220F
:10081600A2AF9201C2AF120104700B0412014AA2E8
:0C0826000192AF7F0022A20192AF7F017F
:0108320022A3
:100893008B1A8A1B891CAB1AAA1BA91C120816EFF8
:0308A30070F422CC
:0308E0000208B754
:0605D3008B2E8A2F8930F7
:1005D900E4FFAB2EAA2FA9308F8275830012011D6B
:1005E90060030F80ED908230E0FE04AB2EAA2FA9A4
:1005F900308F8275830012017E75F08AEEA42491F2
:0E060900F582E5F03480F5837401F00202FD05
:0606C7008B2E8A2F893002
:1006CD00E4FFAB2EAA2FA9308F8275830012011D76
:1006DD00601775F08AA42407F582E5F03480F58360
:0D06ED00E4F08F82F58312017E0FBF04D56B
:0106FA0022DD
:1003FD00020582E493A3F8E493A34003F68001F28F
:10040D0008DFF48029E493A3F85407240CC8C33300
:10041D00C4540F4420C8834004F456800146F6DFCF
:10042D00E4800B0102040810204080900868E47EEF
:10043D00019360BCA3FF543F30E509541FFEE493C4
:10044D00A360010ECF54C025E060A840B8E493A38B
:10045D00FAE493A3F8E493A3C8C582C8CAC583CAB6
:10046D00F0A3C8C582C8CAC583CADFE9DEE780BE6E
:01087E000079
:10000E00E709F608DFFA8046E709F208DFFA803ED4
:10001E0088828C83E709F0A3DFFA8032E309F608C1
:10002E00DFFA8078E309F208DFFA807088828C8329
:10003E00E309F0A3DFFA806489828A83E0A3F608DD
:10004E00DFFA805889828A83E0A3F208DFFA804CB7
:10005E0080D280FA80C680D4806980F2803380108E
:10006E0080A680EA809A80A880DA80E280CA8033F7
:10007E0089828A83ECFAE493A3C8C582C8CCC5836F
:10008E00CCF0A3C8C582C8CCC583CCDFE9DEE7803F
:10009E000D89828A83E493A3F608DFF9ECFAA9F0BE
:1000AE00EDFB2289828A83ECFAE0A3C8C582C8CC14
:1000BE00C583CCF0A3C8C582C8CCC583CCDFEADE2D
:1000CE00E880DB89828A83E493A3F208DFF980CC8F
:1000DE0088F0EF60010E4E60C388F0ED2402B40488
:1000EE000050B9F582EB2402B4040050AF2323452F
:0600FE00822390005E73F6
:10010400BB010689828A83E0225002E722BBFE02F9
:09011400E32289828A83E493222C
:10011D00BB010CE58229F582E5833AF583E0225097
:10012D0006E92582F8E622BBFE06E92582F8E222E1
:0D013D00E58229F582E5833AF583E49322FB
:10014A00BB010989828A83F8E028F022500327F745
:10015A0022BBFE05F8E328F3228A838982F8E49316
:02016A00282249
:10016C00BB010689828A83F0225002F722BBFE0172
:02017C00F3226C
:10017E00F8BB010DE58229F582E5833AF583E8F0B7
:10018E00225006E92582C8F622BBFE05E92582C863
:02019E00F2224B
:1001A000EF8DF0A4A8F0CF8CF0A428CE8DF0A42E73
:0201B000FE222D
:1001B200BC000BBE0029EF8DF084FFADF022E4CC31
:1001C200F875F008EF2FFFEE33FEEC33FCEE9DECFA
:1001D200984005FCEE9DFE0FD5F0E9E4CEFD22ED40
:1001E200F8F5F0EE8420D21CFEADF075F008EF2F8A
:1001F200FFED33FD4007985006D5F0F222C398FD7B
:050202000FD5F0EA2217
:00000001FF
