:1007150050315F3120646F776E210D0A000D0A0D8F
:100725000A48656C6C6F2C207468697320697320A6
:10073500436C65616E4F53403531205625730D0A64
:1007450000302E33004E6F77207461736B20737405
:100755006172742072756E696E67202E2E2E0D0AD9
:1007650000436C65616E4F534035313E000D0A0004
:1007750074696D650054686520636F756E742069D2
:100785007320256425640D0A00556E6B6E6F772006
:0D079500636F6D6D616E643A25730D0A008F
:0F0B36004280850000428088000042808003E8F2
:06029B007BFF7A07796683
:0602A1008B228A23892450
:1002A7009082BCE4F0A37400F0A37425F0AB22AAFB
:1002B70023A924120104FF70030203CE64256013EF
:1002C7000524E5247002052314F9120104FF120A1C
:1002D7009080DAAB220524E52470020523F9AA23CE
:1002E700120104249D606514604424F1601124FB0D
:1002F700700302037E245360030203A30203B39037
:1003070082BCE0FBA3E475F003120207A9F0FA121E
:1003170002549082B7EBF0A3EAF0A3E9F09082B71A
:10032700E0FBA3E0FAA3E0F9120A6D0203C0908292
:10033700BCE0FBA3E475F002120207A9F0FA12026F
:100347001DFF9082BAE5F0F0A3EF801D9082BCE01C
:10035700FBA3E475F001120207A9F0FA120104FEEB
:100367003395E09082BAF0A3CEF09082BAE0FEA374
:10037700E0FF12091F80429082BCE0FBA3E475F006
:1003870001120207A9F0FA120104FE3395E09082E8
:10039700BAF0A3CEF0E0FF120B06801DAB22AA2312
:1003A700A92490FFFF12011DFF120A90AB22AA2376
:1003B700A924120104FF120A9074012524F524E4EC
:0B03C7003523F5230202B47E007F0105
:0103D2002208
:06000300E4FF0FBFFFFC4B
:0100090022D4
:1009ED00908083E0D394DF40F7E4F090808AE0FCC0
:1009FD00A3E0FDA3E0FEA3E02401FFE43EFEE43D01
:0E0A0D00FDE43CFC90808A120248B29280D236
:100B9600D2912091FD7BFF7A0779151202A180F28E
:01000A0022D3
:1007A2008B228A238924908084E0FF75F08AA42416
:1007B20014F582E5F03481F583EBF0A3EAF0A3E9C6
:1007C200F075F08AEFA42413F582E5F03481F58305
:1007D2007450F075F08AEFA424BAF582E5F0348003
:1007E200F583EBF0A3EAF0A3E9F075F08AEFA42415
:1007F20017F582E5F03481F583E4F0908084E0041B
:02080200F022E2
:1005BD00C2AF758921758CE0E4F58AD2A990808748
:1005CD00F0438780759850758DFF858D8BD28ED2B7
:1005DD0099120BD87525FF7526077527467BFF7A6F
:1005ED000779221202A19080847401F0E49082B602
:1005FD00F07BFF7A0979ED1207A27A0B7996120733
:10060D00A2D2AFD28C7A07794A1202A1E4908082ED
:10061D00F07B017A807900752680FD1209BC1202EB
:10062D009B120BCBEF60FA120BD8859921E5216453
:10063D000D6020908082E0C3947F50E5E0FF04F0D0
:10064D0074002FF582E43480F583E521F0FF120A62
:10065D009080CE1208047B017A807900752680E4A3
:0E066D00FD1209BC12029BE4908082F080B363
:100804007BFF7A0779721202A1908000E060447540
:1008140025FF7526077527757B017A8079001208F4
:10082400DFEF701D7BFF7A07797A90808AE0FCA362
:10083400E0FDA3E0FEA3E0F5288E278D268C25801D
:100844000F7525017526807527007BFF7A07798E41
:040854001202A122C9
:0300000002067B7A
:10067B00787FE4F6D8FD9080007F007E80E4F0A3C5
:0A068B00DFFCDEFA7581480206D09C
:03000B00020A1BCB
:100A1B00758CE0C0E075E001120A29120A3CC08314
:100A2B00C082908087F0908083E004F0D082D083E6
:0A0A3B0022D0E0D0E0D0E00204C9B0
:1004C900C2AFC0E0C0F0C083C082C0D01205818530
:1004D90000F0787FE6F0A3D8FBE5F0F07805A3D02B
:1004E900E0F0D8FAD000D001A3E581F0A374FFF0C1
:1004F900A3E8F0A3E9F09082B6E004F0908084E0EC
:10050900FF9082B6E0B50702E4F0120581AE82AF32
:100519008374891205A1E070DD120594E0F81205D3
:1005290094E0F9120594120594E0F581C000C00128
:100539007805120594E0C0E0D8F8120594E0F5F0CA
:100549008F838E82787FE0F6A3D8FB85F000D0D028
:10055900D082D083D0F0D0E0C0E0C082C083908048
:1005690087E0D083D0827005D0E0D2AF2275E00059
:10057900120A29D0E0D2AF329082B6E075F08AA48F
:10058900248EF582E5F03480F58322E58260031537
:100599008222158385FF82228582F025F0F582E586
:1005A900833400F58322E582C39401F582E58394BF
:0405B90000F58322A4
:020BE7000520E7
:070B45004482C7000000001C
:100B4D0090808AE0FCA3E0FDA3E0FEA3E0FF90828D
:040B5D00CC0202487C
:0D0BA6009082CFE0FF90808DE0C39FFF2282
:030BD500C29922A0
:030BD800C298229E
:030BDB00A29922BA
:0A0BCB003098047F0180027F0022B1
:030BDE008F9922CA
:030BE100AF9922A7
:100A9000AB07120B4D120BDB4009120BA6EFC394F0
:100AA0001040F2120BDB5008120BD5AF03020BDE25
:020AB000C3225F
:080989008B368A3789388D395D
:10099100E4F53AAF391539EFD39400401BAB360576
:1009A10038E538AA377002053714F9120104FF122D
:0A09B1000A905004053A80DBAF3ACB
:0109BB002219
:100B06007B007A007934120AEC7D02120989EFC360
:070B160094025002C322D338
:010B1D0022B5
:100A6D008B368A378938AB36AA37A938120104FF7D
:100A7D006010120A9074012538F538E43537F537D2
:030A8D0080E422E0
:04091F008E348F354E
:1009230078C57C827D017BFF7A0B79E77E007F02AD
:100933001200DE753B01753C82753DC57B017A82F1
:1009430079BFAD35AC341203D37B017A8279BF0210
:020953000A6D2B
:060AB2008B128A13891467
:100AB800E4FFAB120514E514AA137002051314F928
:080AC80012010460030F80EA33
:010AD0002203
:06089C008B088A09890A9D
:1008A2008B0F8A108911AF0E150EEFD394004026DC
:1008B200AB0B050DE50DAA0C7002050C14F9120123
:1008C20004FFAB08050AE50AAA097002050914F932
:0C08D200EF12016C80D0AB0FAA10A9112E
:0108DE0022F7
:0609BC008B228A2389242E
:1009C2008B278A288929AF261526EFD39400401455
:1009D200AB270529E529AA287002052814F9ED128A
:0A09E200016C80E2AB22AA23A924D5
:0109EC0022E8
:1008DF008B228A238924AB22AA23A924120104FF85
:1008EF006011AB25AA26A92712010460066F60E6E6
:1008FF007F0122AB25AA26A927120104FFAB22AA4A
:10090F0023A924120104B507047F0080027F01226E
:100B740053070F74302FFFD39439400474072FFFA9
:010B8400224E
:100AEC00AE07120B74900001EF12017EEEC4540F8E
:0A0AFC00FEFF120B74EF12016C22D2
:100A4500120104FFC39441400BEFD394465005EFC8
:100A550024C9FF22EFC39430400BEFD394395005DE
:070A6500EF24D0FF227F0007
:010A6C002267
:0603D3008B368A378938E1
:1003D900D200AB3BAA3CA93D120104F53E900001B5
:1003E90012011DF53F8C448D45853641853742857F
:1003F9003843E53EC394055039AD3E7F0A120AD110
:100409008E468F47AC46AD47AE44AF451201B28F19
:10041900407E00AC46AD471201A0C3E5459FF545B6
:10042900E5449EF544AE46AF477C007D0A1201B211
:10043900800C753E05E53E14FD7F0A120AD18E46F1
:100449008F47AF3E153EEFD394004058AC46AD47B9
:10045900AE44AF451201B28F407E00AC46AD4712A3
:1004690001A0C3E5459FF545E5449EF544AE46AF79
:10047900477C007D0A1201B28E468F4774302540B1
:10048900F540B43008300005853F408002C200AB1A
:10049900410543E543AA427002054214F9E54012B9
:1004A900016C809EAB41AA42A943E412016C300061
:0F04B9000EAB41AA42A94390FFFF743012017E9F
:0104C8002211
:040AD1008F48A9059C
:100AD5007F017E00AD0119EDD394004009AD487C3E
:060AE500001201A080EEEA
:010AEB0022E8
:100B850030AF047F0180027F009082D0EFF0C2AFCA
:010B9500223D
:0D0BB3009082D0E06003D38001C392AF2296
:0B0BC000120B8574FF12014A020BB3F8
:100B1E00120B85120104700A0412014A120BB37FE4
:080B2E000022120BB37F01222B
:100B61008B158A168917AB15AA16A917120B1EEF3A
:030B710070F422FB
:030BE400020BC041
:060858008B188A19891AB1
:10085E00E4FFAB18AA19A91A8F8275830012011D25
:10086E0060030F80ED9082B6E0FE04AB18AA19A9C2
:10087E001A8F8275830012017E75F08AEEA42417FA
:0E088E00F582E5F03481F5837401F00204C9AF
:060955008B1B8A1C891DAA
:10095B00E4FFAB1BAA1CA91D8F8275830012011D1E
:10096B00601775F08AA4248DF582E5F03480F58349
:0D097B00E4F08F82F58312017E0FBF04D5DA
:01098800224C
:100695000205BDE493A3F8E493A34003F68001F2B9
:1006A50008DFF48029E493A3F85407240CC8C33366
:1006B500C4540F4420C8834004F456800146F6DF35
:1006C500E4800B0102040810204080900B36E47E84
:1006D500019360BCA3FF543F30E509541FFEE4932A
:1006E500A360010ECF54C025E060A840B8E493A3F1
:1006F500FAE493A3F8E493A3C8C582C8CAC583CA1C
:10070500F0A3C8C582C8CAC583CADFE9DEE780BED3
:010B4C0000A8
:10000E00E709F608DFFA8046E709F208DFFA803ED4
:10001E0088828C83E709F0A3DFFA8032E309F608C1
:10002E00DFFA8078E309F208DFFA807088828C8329
:10003E00E309F0A3DFFA806489828A83E0A3F608DD
:10004E00DFFA805889828A83E0A3F208DFFA804CB7
:10005E0080D280FA80C680D4806980F2803380108E
:10006E0080A680EA809A80A880DA80E280CA8033F7
:10007E0089828A83ECFAE493A3C8C582C8CCC5836F
:10008E00CCF0A3C8C582C8CCC583CCDFE9DEE7803F
:10009E000D89828A83E493A3F608DFF9ECFAA9F0BE
:1000AE00EDFB2289828A83ECFAE0A3C8C582C8CC14
:1000BE00C583CCF0A3C8C582C8CCC583CCDFEADE2D
:1000CE00E880DB89828A83E493A3F208DFF980CC8F
:1000DE0088F0EF60010E4E60C388F0ED2402B40488
:1000EE000050B9F582EB2402B4040050AF2323452F
:0600FE00822390005E73F6
:10010400BB010689828A83E0225002E722BBFE02F9
:09011400E32289828A83E493222C
:10011D00BB010CE58229F582E5833AF583E0225097
:10012D0006E92582F8E622BBFE06E92582F8E222E1
:0D013D00E58229F582E5833AF583E49322FB
:10014A00BB010989828A83F8E028F022500327F745
:10015A0022BBFE05F8E328F3228A838982F8E49316
:02016A00282249
:10016C00BB010689828A83F0225002F722BBFE0172
:02017C00F3226C
:10017E00F8BB010DE58229F582E5833AF583E8F0B7
:10018E00225006E92582C8F622BBFE05E92582C863
:02019E00F2224B
:1001A000EF8DF0A4A8F0CF8CF0A428CE8DF0A42E73
:0201B000FE222D
:1001B200BC000BBE0029EF8DF084FFADF022E4CC31
:1001C200F875F008EF2FFFEE33FEEC33FCEE9DECFA
:1001D200984005FCEE9DFE0FD5F0E9E4CEFD22ED40
:1001E200F8F5F0EE8420D21CFEADF075F008EF2F8A
:1001F200FFED33FD4007985006D5F0F222C398FD7B
:050202000FD5F0EA2217
:10020700A3F8E0C5F025F0F0E582158270021583AA
:06021700E0C838F0E82207
:10021D00BB010A89828A83E0F5F0A3E022500687AC
:10022D00F009E71922BBFE07E3F5F009E31922896E
:0B023D00828A83E493F5F074019322A1
:0C024800ECF0A3EDF0A3EEF0A3EFF02229
:10025400BB010789828A8302027D5005E9F8020204
:1002640074BBFE05E9F802028689828A8302028F42
:09027400E6FB08E6FA08E6F922AF
:09027D00E0FBA3E0FAA3E0F92282
:09028600E2FB08E2FA08E2F922A9
:0C028F00E493FB740193FA740293F922CB
:00000001FF
