:1003EC0074696D650068656C700070730050315FE6
:1003FC003120646F776E210D0A0025632070656EC5
:10040C0064696E670D0A002563206F70656E0D0AB6
:10041C0000256320636C6F73650D0A000D0A0D0ACD
:10042C0048656C6C6F2C2074686973206973204369
:10043C006C65616E4F53403531205625730D0A00A3
:10044C00302E33005368656C6C206C696B652049E9
:10045C006E746572666163650054696D65722063C4
:10046C006F756E7465720050312E31206D6F6E6930
:10047C00746F7200310032004E6F77207461736BB1
:10048C002073746172742072756E696E67202E2EE3
:10049C002E0D0A00436C65616E4F534035313E00A2
:1004AC000D0A00556E6B6E6F7720636F6D6D616E0C
:1004BC00643A25730D0A004E6F7720636F756E7466
:1004CC0020697320256425640D0A0025730D0A002C
:1004DC0052756E6E696E670050656E64696E67006A
:1004EC0050494409537461747573094E616D650DFF
:1004FC000A0025630925730925730D0A00FF04DC26
:03050C00FF04E405
:100CD30042808A000042808D000042808003E81237
:100CE30008FF03ECFF0D5BFF03F1FF0C55FF03F659
:030CF300FF089D5A
:0802B2007BFF908355E0F52B62
:0602BA008B288A29892A25
:1002C00090835BE4F0A37400F0A3742BF0AB28AA36
:1002D00029A92A120104FF70030203E764256013B1
:1002E000052AE52A7002052914F9120104FF120DEE
:1002F0001A80DAAB28052AE52A70020529F9AA290D
:10030000120104249D606514604424F1601124FBF3
:100310007003020397245360030203BC0203CC90D2
:10032000835BE0FBA3E475F003120207A9F0FA1265
:100330000265908356EBF0A3EAF0A3E9F0908356B0
:10034000E0FBA3E0FAA3E0F9120CF70203D99083D3
:100350005BE0FBA3E475F002120207A9F0FA1202B7
:100360001DFF908359E5F0F0A3EF801D90835BE0C3
:10037000FBA3E475F001120207A9F0FA120104FED2
:100380003395E0908359F0A3CEF0908359E0FEA31B
:10039000E0FF120B60804290835BE0FBA3E475F00A
:1003A00001120207A9F0FA120104FE3395E09083CE
:1003B00059F0A3CEF0E0FF120DE0801DAB28AA2972
:1003C000A92A90FFFF12011DFF120D1AAB28AA29BE
:1003D000A92A120104FF120D1A7401252AF52AE434
:0B03E0003529F5290202CD7E007F01C7
:0103EB0022EF
:100BFA00908083E0D394DF40F7E4F0908090E0FCAB
:100C0A00A3E0FDA3E0FEA3E02401FFE43EFEE43DF1
:0E0C1A00FDE43CFC908090120259B29280D210
:100E7200D2912091FD7BFF7A0379F91202BA80F2B6
:100C28007B017A80798F120DF8EF60127A047906C9
:100C38001202B27B017A807985120A4D80E27BFF2D
:0D0C48007A047913908355E0F52B0202BA6F
:100DAE007A04791D1202B27B017A80798F120E9C21
:090DBE007B017A807985020ADFCD
:040B21008E228F236E
:100B2500908090E0FCA3E0FDA3E0FEA3E0F5278E16
:100B3500268D258C24E527240AFFE43526FEE43599
:100B450025FDE43524FC908090E0F8A3E0F9A3E0CE
:0A0B5500FAA3E0FBC312024840DBE4
:010B5F002273
:100E1000120C287F0A7E00120B21120DAE7F037E7A
:060E200000120B2180EA24
:100E2600120C287F067E00120B21120DAE7F057E66
:060E360000120B2180EA0E
:10091A008B228A238924908084E0FF75F08DA42499
:10092A001AF582E5F03481F583EBF0A3EAF0A3E946
:10093A00F075F08DEFA42419F582E5F03481F58382
:10094A007450F075F08DEFA424C0F582E5F0348080
:10095A00F583EBF0A3EAF0A3E9F075F08DEFA42498
:10096A001DF582E5F03481F583E4F075F08DEFA48E
:10097A00241EF582E5F03481F583E525F0A3E5260A
:0C098A00F0A3E527F0908084E004F02248
:10050F00C2AF758921758CE0E4F58AD2A990808CF1
:10051F00F0438780759850758DFF858D8BD28ED265
:10052F0099120006752BFF752C04752D4C7BFF7AE5
:10053F000479281202BA7581509080847401F0E416
:10054F00908355F090811E74FFF0A37404F0A37490
:10055F0050F07525FF7526047527657BFF7A0B799B
:10056F00FA12091A8B257526047527737A0E79727C
:10057F0012091A8B257526047527807A0E791012A9
:10058F00091A8B257526047527827A0E792612098A
:10059F001AD2AFD28C7A0479841202BAE490808294
:1005AF00F07B017A807900752680FD120BC97BFFE5
:1005BF007A0479A01202BA120EA7EF60FA1200069F
:1005CF00859921E521640D6020908082E0C3947F9E
:1005DF0050E5E0FF04F074002FF582E43480F583DA
:1005EF00E521F0FF120D1A80CE1209967B017A8059
:1005FF007900752680E4FD120BC97BFF7A0479A080
:0A060F001202BAE4908082F080AD80
:100996007BFF7A0479AC1202BA908000E06052E4E0
:1009A600F522E52275F006A42408F8860308E6FA7F
:1009B60008E68B268A27F5287B017A8079001209BA
:1009C600F8EF7012E52275F006A4240BF808E6FA93
:1009D60008E6F90202850522E522C3940340C375A1
:1009E6002B01752C80752D007BFF7A0479AF1202DE
:0109F600BA46
:0109F70022DD
:100D5B007BFF7A0479C3908090E0FCA3E0FDA3E0D5
:0E0D6B00FEA3E0F52E8E2D8D2C8C2B0202BAED
:100C5500E4F521E52175F006A42408F8860308E6E5
:100C6500FA08E68B2B8A2CF52D7BFF7A0479D712AF
:0B0C750002BA0521E521C3940340D81A
:010C80002251
:10089D0078227C007D007BFF7A0579097E007F063A
:1008AD001200DE7BFF7A0479EC1202BAE4F5219096
:1008BD008084E0FFE521C39F505285212B75F08D7B
:1008CD00E521A4241DF582E5F03481F583E075F072
:1008DD0003A42422F8860308E6FA08E68B2C8A2D59
:1008ED00F52E75F08DE521A4241EF582E5F03481F9
:1008FD00F583E0FBA3E0FAA3E08B2F8A30F5317B83
:0C090D00FF7A0479FE1202BA052180A3D3
:0109190022BB
:03000000020803F0
:10080300787FE4F6D8FD9080007F007E80E4F0A33B
:0A081300DFFCDEFA75815802085878
:03000B00020C8163
:100C8100758CE0C0E075E001120C8F120CA2C083DC
:100C9100C08290808CF0908083E004F0D082D08379
:0A0CA10022D0E0D0E0D0E002070FFF
:10070F00C2AFC0E0C0F0C083C082C0D01207C7859F
:10071F0000F0787FE6F0A3D8FBE5F0F07805A3D0E2
:10072F00E0F0D8FAD000D001A3E581F0A374FFF078
:10073F00A3E8F0A3E9F0908355E004F0908084E003
:10074F00FF908355E0B50702E4F01207C7AE82AF02
:10075F008374891207E7E070DD1207DAE0F81207F9
:10076F00DAE0F91207DA1207DAE0F581C000C0010A
:10077F0078051207DAE0C0E0D8F81207DAE0F5F0F2
:10078F008F838E82787FE0F6A3D8FB85F000D0D0E0
:10079F00D082D083D0F0D0E0C0E0C082C083908000
:1007AF008CE0D083D0827005D0E0D2AF2275E0000C
:1007BF00120C8FD0E0D2AF32908355E075F08DA43C
:1007CF002494F582E5F03480F58322E582600315E9
:1007DF008222158385FF82228582F025F0F582E53E
:1007EF00833400F58322E582C39401F582E5839477
:0407FF0000F583225C
:020009000520D0
:100E3C00908090E0FCA3E0FDA3E0FEA3E0FF908394
:040E4C0066020259DF
:0D0E8200908369E0FF908093E0C39FFF2202
:03000300C299227D
:03000600C298227B
:030EB100A29922E1
:0A0EA7003098047F0180027F0022D2
:030EB4008F9922F1
:030EB700AF9922CE
:100D1A00AB07120E3C120EB14009120E82EFC394B9
:100D2A001040F2120EB15008120003AF03020EB4C3
:020D3A00C322D2
:080B96008B3C8A3D893E8D3F36
:100B9E00E4F540AF3F153FEFD39400401BAB3C054F
:100BAE003EE53EAA3D7002053D14F9120104FF1206
:0A0BBE000D1A5004054080DBAF4023
:010BC800220A
:100DE0007B007A00793A120D947D02120B96EFC3C4
:070DF00094025002C322D35C
:010DF70022D9
:100CF7008B3C8A3D893EAB3CAA3DA93E120104FFCD
:100D07006010120D1A7401253EF53EE4353DF53DA0
:030D170080E42253
:040B60008E3A8F3BFF
:100B640078647C837D017BFF7A0079097E007F02B3
:100B74001200DE7541017542837543647B017A83FB
:100B8400795EAD3BAC3A1206197B017A83795E0239
:020B94000CF75C
:060D3C008B1A8A1B891CC2
:100D4200E4FFAB1A051CE51CAA1B7002051B14F973
:080D520012010460030F80EAA6
:010D5A002276
:060A9C008B4F8A508951C6
:100AA2008B568A578958AF551555EFD39400402677
:100AB200AB520554E554AA537002055314F91201BE
:100AC20004FFAB4F0551E551AA507002055014F9CD
:0C0AD200EF12016C80D0AB56AA57A95857
:010ADE0022F5
:060BC9008B228A2389241F
:100BCF008B278A288929AF261526EFD39400401446
:100BDF00AB270529E529AA287002052814F9ED127B
:0A0BEF00016C80E2AB22AA23A924C6
:010BF90022D9
:1009F8008B238A248925AB23AA24A925120104FE66
:100A08006030AB26AA27A92812010460250528E52D
:100A1800287002052714F9120104FFAB230525E508
:100A280025AA247002052414F91201046F60C77FF7
:100A38000122AB26AA27A928120104B506047F00C3
:050A480080027F012285
:100E500053070F74302FFFD39439400474072FFFCA
:010E6000226F
:100D9400AE07120E50900001EF12017EEEC4540F04
:0A0DA400FEFF120E50EF12016C2248
:100CAB00120104FFC39441400BEFD394465005EF60
:100CBB0024C9FF22EFC39430400BEFD39439500576
:070CCB00EF24D0FF227F009F
:010CD20022FF
:060619008B3C8A3D893E86
:10061F00D200AB41AA42A943120104F54490000154
:10062F0012011DF5458C4A8D4B853C47853D48850C
:10063F003E49E544C394055039AD447F0A120D7904
:10064F008E4C8F4DAC4CAD4DAE4AAF4B1201B28FAD
:10065F00467E00AC4CAD4D1201A0C3E54B9FF54B50
:10066F00E54A9EF54AAE4CAF4D7C007D0A1201B2B1
:10067F00800C754405E54414FD7F0A120D798E4CEC
:10068F008F4DAF441544EFD394004058AC4CAD4D53
:10069F00AE4AAF4B1201B28F467E00AC4CAD4D123D
:1006AF0001A0C3E54B9FF54BE54A9EF54AAE4CAF13
:1006BF004D7C007D0A1201B28E4C8F4D7430254651
:1006CF00F546B430083000058545468002C200ABC0
:1006DF00470549E549AA487002054814F9E546124D
:1006EF00016C809EAB47AA48A949E412016C300007
:0F06FF000EAB47AA48A94990FFFF743012017E45
:01070E0022C8
:040D79008F4EA905EB
:100D7D007F017E00AD0119EDD394004009AD4E7C8D
:060D8D00001201A080EE3F
:010D9300223D
:100E610030AF047F0180027F0090836BEFF0C2AF4F
:010E7100225E
:0D0E8F0090836BE06003D38001C392AF221B
:0B0E9C00120E6174FF12014A020E8F5B
:100DF800120E61120104700A0412014A120E8F7F4A
:080E08000022120E8F7F01226F
:060DC7007B017A83796ACA
:100DCD008B258A268927AB25AA26A927120DF8EF90
:030DDD0070F4228D
:030EBA00020E9C89
:060A4D008B228A2389249C
:100A5300E4FE120DC7AB22AA23A9248E827583005C
:100A630012011D60030E80ED908355E0FF04AB225D
:100A7300AA23A9248E8275830012017E75F08DEF5F
:100A8300A4241DF582E5F03481F5837401F0FB7A2B
:090A930083796A120EBA02070F02
:060ADF008B228A2389240A
:100AE500E4FF120DC7E4FFAB22AA23A9248F827568
:100AF500830012011DFE601775F08DA42490F58208
:100B0500E5F03480F583E4F08F82F58312017E0FE2
:0C0B1500BF04D47B017A83796A020EBA17
:10081D0002050FE493A3F8E493A34003F68001F2DD
:10082D0008DFF48029E493A3F85407240CC8C333DC
:10083D00C4540F4420C8834004F456800146F6DFAB
:10084D00E4800B0102040810204080900CD3E47E5C
:10085D00019360BCA3FF543F30E509541FFEE493A0
:10086D00A360010ECF54C025E060A840B8E493A367
:10087D00FAE493A3F8E493A3C8C582C8CAC583CA92
:10088D00F0A3C8C582C8CAC583CADFE9DEE780BE4A
:010CF60000FD
:10000E00E709F608DFFA8046E709F208DFFA803ED4
:10001E0088828C83E709F0A3DFFA8032E309F608C1
:10002E00DFFA8078E309F208DFFA807088828C8329
:10003E00E309F0A3DFFA806489828A83E0A3F608DD
:10004E00DFFA805889828A83E0A3F208DFFA804CB7
:10005E0080D280FA80C680D4806980F2803380108E
:10006E0080A680EA809A80A880DA80E280CA8033F7
:10007E0089828A83ECFAE493A3C8C582C8CCC5836F
:10008E00CCF0A3C8C582C8CCC583CCDFE9DEE7803F
:10009E000D89828A83E493A3F608DFF9ECFAA9F0BE
:1000AE00EDFB2289828A83ECFAE0A3C8C582C8CC14
:1000BE00C583CCF0A3C8C582C8CCC583CCDFEADE2D
:1000CE00E880DB89828A83E493A3F208DFF980CC8F
:1000DE0088F0EF60010E4E60C388F0ED2402B40488
:1000EE000050B9F582EB2402B4040050AF2323452F
:0600FE00822390005E73F6
:10010400BB010689828A83E0225002E722BBFE02F9
:09011400E32289828A83E493222C
:10011D00BB010CE58229F582E5833AF583E0225097
:10012D0006E92582F8E622BBFE06E92582F8E222E1
:0D013D00E58229F582E5833AF583E49322FB
:10014A00BB010989828A83F8E028F022500327F745
:10015A0022BBFE05F8E328F3228A838982F8E49316
:02016A00282249
:10016C00BB010689828A83F0225002F722BBFE0172
:02017C00F3226C
:10017E00F8BB010DE58229F582E5833AF583E8F0B7
:10018E00225006E92582C8F622BBFE05E92582C863
:02019E00F2224B
:1001A000EF8DF0A4A8F0CF8CF0A428CE8DF0A42E73
:0201B000FE222D
:1001B200BC000BBE0029EF8DF084FFADF022E4CC31
:1001C200F875F008EF2FFFEE33FEEC33FCEE9DECFA
:1001D200984005FCEE9DFE0FD5F0E9E4CEFD22ED40
:1001E200F8F5F0EE8420D21CFEADF075F008EF2F8A
:1001F200FFED33FD4007985006D5F0F222C398FD7B
:050202000FD5F0EA2217
:10020700A3F8E0C5F025F0F0E582158270021583AA
:06021700E0C838F0E82207
:10021D00BB010A89828A83E0F5F0A3E022500687AC
:10022D00F009E71922BBFE07E3F5F009E31922896E
:0B023D00828A83E493F5F074019322A1
:10024800EB9FF5F0EA9E42F0E99D42F0E89C45F00C
:010258002283
:0C025900ECF0A3EDF0A3EEF0A3EFF02218
:10026500BB010789828A830202945005E9F80202DC
:100275008BBBFE05E9F802029D89828A830202A6EC
:060285008A838982E47304
:09028B00E6FB08E6FA08E6F92298
:09029400E0FBA3E0FAA3E0F9226B
:09029D00E2FB08E2FA08E2F92292
:0C02A600E493FB740193FA740293F922B4
:00000001FF
